01            000120FLASHDL51543564796   1543564796                000000013680001368298000001570 0000001319092018092118          EDERZ092118075819E           A 00000001319      1 N. MECHANIC           CHAMBER OF COMMERCE     01-0005-02    01001     LOC:                    MTR:51866971                                                                                                                                                                                     01-0005-0201001                         0000
01            000125FLASHDL51834032164   1834032164                000000005770000577394000000793 0000000573092018092118          EDERZ092118075728E           A 00000000573      8 N. WASHINGTON         GAZEBO                  01-0040-00    01001     LOC:                    MTR:80114292                                                                                                                                                                                     01-0040-0001001                         2000
01            000130FLASHDL51850361690   1850361690                000000048480004848210000005049 0000004763092018092118          EDERZ092118075636E           A 00000004763      2 N. WASHINGTON         MEXICO LINDO            01-0010-07    01001     LOC:                    MTR:80114264                                                                                                                                                                                     01-0010-0701001                         0041
01            000160FLASHDL51850031319   1850031319                000000052500005250806000005447 0000005176092018092118          EDERZ092118075756E           A 00000005176      2 N. WASHINGTON 1/2     DR. W. W. DUSON         01-0020-00    01001     LOC:                    MTR:80114290                                                                                                                                                                                     01-0020-0001001                         0030
01            000190FLASHDL51852794485   1852794485                000000000220000022527000000222 0000000178092018092118          EDERZ092118075734E           A 10000000021      4 N. WASHINGTON         LOWELL FARMS            01-0030-01    01001     LOC:                    MTR:80114291                                                                                                                                                                                     01-0030-0101001                         4000
01            000210FLASHDL51852321033   1852321033                000000013220001322133000001531 0000001310092018092118          EDERZ092118075547E           A 00000001310      207 E. MONSERATTE A     APPLING INC.            01-0070-00    01001     LOC:                    MTR:80114287                                                                                                                                                                                     01-0070-0001001                         0000
01            000240FLASHDL51852366817   1852366817                000000018270001827351000002030 0000001796092018092118          EDERZ092118075701E           A 00000001796      102 N. WASHINGTON       APPLING, INC.           01-0080-00    01001     LOC:                    MTR:80114288                                                                                                                                                                                     01-0080-0001001                         1000
01            000270FLASHDL51850042460   1850042460                000000004410000441656000000642 0000000437092018092118          EDERZ092118075546E           A 00000000437      106 N. WASHINGTON       EXECUTIVE STITCHES      01-0090-02    01001     LOC:                    MTR:80114289                                                                                                                                                                                     01-0090-0201001                         2000
01            000280FLASHDL51852806561   1852806561                000000010980001098383000001276 0000001059092018092118          EDERZ092118075830E           A 00000001059      107 N. MECHANIC         C. STAFF CONSTRUCTION   01-0446-00    01001     LOC:                    MTR:69504538                                                                                                                                                                                     01-0446-0001001                         3001
01            000300FLASHDL51852365253   1852365253                000000001870000187984000000385 0000000180092018092118          EDERZ092118075535E           A 00000000180      108 N. WASHINGTON       PRAIRIE ROSE CLOTHIERS  01-0100-01    01001     LOC:                    MTR:80114265                                                                                                                                                                                     01-0100-0101001                         2000
01            000330FLASHDL51834765055   1834765055                000000009070000907140000001111 0000000899092018092118          EDERZ092118075725E           A 00000000899      110 N. WASHINGTON       PRAIRIE ROSE CLOTHIERS  01-0110-01    01001     LOC:                    MTR:80114263                                                                                                                                                                                     01-0110-0101001                         3000
01            000360FLASHDL51850206019   1850206019                000000006200000620827000000822 0000000610092018092118          EDERZ092118074054E           A 00000000610      207 E. MONSERATTE B     APPLING INC.            01-0120-00    01001     LOC:                    MTR:80114158                                                                                                                                                                                     01-0120-0001001                         2000
01            000420FLASHDL61852323722   1852323722                000000025490000254917000002740 0000002473092018092118          EDERZ092118080737E           A 00000002473      200 E. JACKSON          NEW FIRST NATIONAL BANK 01-0140-00    01001     LOC:                    MTR:60419515                                                                                                                                                                                     01-0140-0001001                         0010
01            000430FLASHDL51543590896   1543590896                000000024200002420997000002556 0000002280092018092118          EDERZ092118074042E           A 00000002280      200 E. JACKSON          NEW FIRST NATIONAL BANK 01-0140-00    01002     LOC:                    MTR:51338623                                                                                                                                                                                     01-0140-0001002                         2000
01            000450FLASHDL51852809774   1852809774                000000003420000342951000000543 0000000331092018092118          EDERZ092118075703E           A 00000000331      110 MERCHANT            DRIVING SAFETY SERVICES 01-0150-02    01001     LOC:                    MTR:80114267                                                                                                                                                                                     01-0150-0201001                         1010
01            000510FLASHDL51547894578   1547894578                000000010090001009559000001092 0000000692092018092118          EDERZ092118075543E           A 00000000674      302 E. JACKSON          D & J DETAIL SERVICE    01-0170-06    01001     LOC:                    MTR:80114266                                                                                                                                                                                     01-0170-0601001                         0062
01            000540FLASHDL51852342950   1852342950                000000007070000707943000000707 0000000707092018092118          EDERZ092118074030E           I 00000000707      227 E. JACKSON          ---IDLE METER---        01-0180-99    01001     LOC:                    MTR:80114242                                                                                                                                                                                     01-0180-9901001                         6000
01            000570FLASHDL51833124695   1833124695                000000009410000941999000001141 0000000940092018092118          EDERZ092118075706E           A 00000000940      223 E. JACKSON          THE TRAVEL STORE        01-0190-00    01001     LOC:                    MTR:80112704                                                                                                                                                                                     01-0190-0001001                         2000
01            000600FLASHDL51850363562   1850363562                000000000000000000001000000000 0000000000092018092118          EDERZ092118075721E           I 00000000000      207 E. JACKSON          ---IDLE METER---        01-0200-99    01001     LOC:                    MTR:80114063                                                                                                                                                                                     01-0200-9901001                         6000
01            000630FLASHDL51852809532   1852809532                000000000430000043364000000242 0000000158092018092118          EDERZ092118075710E           A 10000000041      205 E. JACKSON          EL CAMPO LEADER-NEWS    01-0210-00    01001     LOC:                    MTR:80114243                                                                                                                                                                                     01-0210-0001001                         2000
01            000660FLASHDL51542070446   1542070446                000000000000000000000000000200 0000000200092018092118          EDERZ092118075737E           A 00000000000      200 N. WASHINGTON       MIKESKA'S BAR-B-QUE     01-0220-00    01001     LOC:                    MTR:80114303                                                                                                                                                                                     01-0220-0001001                         6000
01            000690FLASHDL51852808455   1852808455                000000004550000455599000000655 0000000441092018092118          EDERZ092118075618E           A 00000000441      203 E. JACKSON          WHARTON COUNTY NEWSPAPER01-0230-00    01001     LOC:                    MTR:80114240                                                                                                                                                                                     01-0230-0001001                         2000
01            000720FLASHDL51852320997   1852320997                000000016150001615245000001876 0000001615092018092118          EDERZ092118074103E           A 00000001615      201 E. JACKSON          GLOBECOM MEDIA          01-0240-02    01001     LOC:                    MTR:801123025                                                                                                                                                                                    01-0240-0201001                         6000
01            000750FLASHDL51850365428   1850365428                000000086300008630151000008840 0000008490092018092118          EDERZ092118075730E           A 00000008490      205 N. WASHINGTON       NOVAK'S MEAT MARKET     01-0250-00    01001     LOC:                    MTR:80112742                                                                                                                                                                                     01-0250-0001001                         0061
01            000810FLASHDL51852359168   1852359168                000000012410001241951000001377 0000001161092018092118          EDERZ092118075815E           A 00000001161      211 N. WASHINGTON       RIOUX HARDWARE          01-0270-00    01001     LOC:                    MTR:80114244                                                                                                                                                                                     01-0270-0001001                         0010
01            000840FLASHDL51852803863   1852803863                000000014060001406826000001617 0000001397092018092118          EDERZ092118075843E           A 00000001397      117 E. JACKSON          ROYAL MANAGEMENT        01-0280-00    01001     LOC:                    MTR:80114241                                                                                                                                                                                     01-0280-0001001                         1020
01            000930FLASHDL51852812702   1852812702                000000000950000095374000000295 0000000105092018092118          EDERZ092118075752E           A 10000000092      202 N. MECHANIC         TEXAS CAR TITLE AND PAYD01-0320-04    01001     LOC:                    MTR:80112709                                                                                                                                                                                     01-0320-0401001                         1000
01            000960FLASHDL51852809545   1852809545                000000008470000847353000001043 0000000814092018092118          EDERZ092118124038E           A 00000000814      214 N. MECHANIC         SUPERIOR MOTOR PARTS, IN01-0330-00    01001     LOC:                    MTR:80114278                                                                                                                                                                                     01-0330-0001001                         2000
01            001020FLASHDL61832550459   1832550459                000000292810002928182000029479 0000029234092018092118          EDERZ092118075810E           A 00000029234      203 N. MECHANIC         WALGREENS #9739         01-0350-02    01001     LOC:                    MTR:60444092                                                                                                                                                                                     01-0350-0201001                         0000
01            001021FLASHDL61852323855   1852323855                000000000000000000015000000200 0000000200092018092118        SPEDERZ092118080706E           A 00000000000      203 N. MECHANIC         WALGREENS #9739         01-0350-02    01002     LOC:SPRINKLER SYSTEM    MTR:60430904                                                                                                                                                                                     01-0350-0201002                         6000
01            001140FLASHDL51852807421   1852807421                000000006430000643876000000864 0000000639092018092118          EDERZ092118075756E           A 00000000639      208 FAHRENTHOLD         JOHN PETTY REALTORS     01-0400-01    01001     LOC:                    MTR:80114259                                                                                                                                                                                     01-0400-0101001                         2000
01            001170FLASHDL51852802805   1852802805                000000003410000341620000000547 0000000332092018092118          EDERZ092118075753E           A 00000000332      118 W. JACKSON          WILLIS, GEO. P. OFFICE  01-0410-00    01001     LOC:                    MTR:80114258                                                                                                                                                                                     01-0410-0001001                         2000
01            001200FLASHDL51852794465   1852794465                000000001230000123388000000322 0000000118092018092118          EDERZ092118075844E           A 00000000118      202 FAHRENTHOLD         TOWN & COUNTRY REALESTAT01-0420-05    01001     LOC:                    MTR:80114257                                                                                                                                                                                     01-0420-0501001                         1000
01            001230FLASHDL51852318115   1852318115                000000002230000223429000000422 0000000217092018092118          EDERZ092118075747E           A 00000000217      116 N. MECHANIC         BAR C  FINANCE          01-0430-05    01001     LOC:                    MTR:49310460                                                                                                                                                                                     01-0430-0501001                         2000
01            001240FLASHDL51541966718                             0                    000007041 0000006641092018092118            EUZ                        A  0000006144      117 N. MECHANIC         DOMINO'S PIZZA STORE #9301-0435-00    01001     LOC:                    MTR:69504557                                                                                                                                                                                     01-0435-0001001                             
01            001260FLASHDL51852807505   1852807505                000000002230000223518000000422 0000000215092018092118          EDERZ092118075811E           A 00000000215      112 N. MECHANIC         GERBERMAN & BURES       01-0440-00    01001     LOC:                    MTR:80114262                                                                                                                                                                                     01-0440-0001001                         2000
01            001290FLASHDL51850712053   1850712053                000000035130003513069000003721 0000003436092018092118          EDERZ092118075840E           A 00000003436      108 E. JACKSON          TOUGH COUNTRY OUTFITTERS01-0450-03    01001     LOC:                    MTR:80114261                                                                                                                                                                                     01-0450-0301001                         1020
01            001320FLASHDL51834030658   1834030658                000000004140000414037000000613 0000000411092018092118          EDERZ092118075748E           A 00000000411      115 N. WASHINGTON       MOLLISONDRA BODUNGEN    01-0460-02    01001     LOC:                    MTR:80114260                                                                                                                                                                                     01-0460-0201001                         5010
01            001350FLASHDL51852800412   1852800412                000000001160000116620000000315 0000000113092018092118          EDERZ092118075807E           A 00000000113      117 N. WASHINGTON       PAINT PERFECTION        01-0470-02    01001     LOC:                    MTR:80114248                                                                                                                                                                                     01-0470-0201001                         2000
01            001410FLASHDL51852320549   1852320549                000000006410000641760000000840 0000000631092018092118          EDERZ092118075730E           A 00000000631      123 N. WASHINGTON       BRIGGS & VESELKA CO.,PC 01-0490-01    01001     LOC:                    MTR:80114250                                                                                                                                                                                     01-0490-0101001                         2000
01            001411FLASHDL51850365010   1850365010                000000002870000287759000000485 0000000280092018092118          EDERZ092118075726E           A 00000000280      123 N. WASHINGTON       BRIGGS & VESELKA CO.,PC 01-0490-01    01002     LOC:                    MTR:80114249                                                                                                                                                                                     01-0490-0101002                         1000
01            001440FLASHDL51833123216   1833123216                000000015120001512274000001710 0000001460092018092118          EDERZ092118075538E           A 00000001460      109 N. WASHINGTON       PAINT PERFECTION        01-0500-02    01001     LOC:                    MTR:80114247                                                                                                                                                                                     01-0500-0201001                         0051
01            001470FLASHDL51852808511   1852808511                000000000670000067113000000266 0000000134092018092118          EDERZ092118075715E           A 10000000062      127 E. MONSERATTE       GLORIA MAREK            01-0510-01    01001     LOC:                    MTR:80114245                                                                                                                                                                                     01-0510-0101001                         2000
01            001530FLASHDL51852812697   1852812697                000000015250001525911000001709 0000001471092018092118          EDERZ092118075751E           A 00000001471      105 N. WASHINGTON       JOHN L. RICHARDS DDS    01-0530-00    01001     LOC:                    MTR:80114246                                                                                                                                                                                     01-0530-0001001                         2000
01            001560FLASHDL51852807431   1852807431                000000001180000118442000000318 0000000111092018092118          EDERZ092118075904E           A 00000000111      125 E. MONSERATTE       RICHARD L. MANSKE       01-0540-00    01001     LOC:                    MTR:80114164                                                                                                                                                                                     01-0540-0001001                         1000
01            001590FLASHDL51850365123   1850365123                000000009060000906577000001109 0000000877092018092118          EDERZ092118075724E           A 00000000877      121 E. MONSERATTE       MANSKE & HAJOVSKY       01-0550-00    01001     LOC:                    MTR:80114165                                                                                                                                                                                     01-0550-0001001                         0062
01            001620FLASHDL51850363256   1850363256                000000008650000865233000001069 0000000862092018092118          EDERZ092118075838E           A 00000000862      115 E. MONSERATTE       NEW BEGINNINGS          01-0560-02    01001     LOC:                    MTR:80114166                                                                                                                                                                                     01-0560-0201001                         1000
01            001680FLASHDL51834030684   1834030684                000000004740000474088000000674 0000000470092018092118          EDERZ092118075815E           A 00000000470      111 E. MONSERATTE       TABERNACULO DE RESTAURAC01-0590-04    01001     LOC:                    MTR:80113544                                                                                                                                                                                     01-0590-0401001                         5000
01            001715FLASHDL51850712021   1850712021                000000004070000407144000000608 0000000405092018092118          EDERZ092118075756E           A 00000000405      107 E. MONSERATTE       BAROS, JAMES            01-0610-02    01001     LOC:                    MTR:80114161                                                                                                                                                                                     01-0610-0201001                         5000
01            001740FLASHDL51852319630   1852319630                000000021140002114192000002328 0000002092092018092118          EDERZ092118080715E           A 00000002092      103 E. MONSERATTE       R & R PRINTING          01-0620-00    01001     LOC:                    MTR:80114162                                                                                                                                                                                     01-0620-0001001                         1030
01            001770FLASHDL51543554280   1543554280                000000010040001004319000001220 0000000972092018092118          EDERZ092118075725E           A 00000000972      101 E. MONSERATTE       LALA'S HAIR DESIGN      01-0630-00    01001     LOC:                    MTR:49494765                                                                                                                                                                                     01-0630-0001001                         1000
01            001925FLASHDL51852770234   1852770234                000000009220000922345000001119 0000000897092018092118          EDERZ092118075851E           A 00000000897      107 W. MONSERATTE       KATHRYN BURROW          01-9400-01    01001     LOC:                    MTR:80112529                                                                                                                                                                                     01-9400-0101001                         2000
01            001950FLASHDL51852332042   1852332042                000000021350002135122000002315 0000002002092018092118          EDERZ092118075817E           A 00000002002      120 W. MONSERATTE       JALAPENO'S CUISINE      01-0690-06    01001     LOC:                    MTR:80114298                                                                                                                                                                                     01-0690-0601001                         0061
01            001955FLASHDL51852777041   1852777041                000000001790000179591000000384 0000000175092018092118          EDERZ092118075859E           A 00000000175      111 W. MONSERATTE       NEW COVENANT CHURCH OF E01-9300-02    01001     LOC:                    MTR:80114016                                                                                                                                                                                     01-9300-0201001                         2000
01            001980FLASHDL51850062952   1850062952                000000005020000502521000000702 0000000500092018092118          EDERZ092118075812E           A 00000000500      201 W. MONSERATTE       EL CAMPO ART LEAGUE     01-0700-00    01001     LOC:                    MTR:80785530                                                                                                                                                                                     01-0700-0001001                         2000
01            002010FLASHDL51852322608   1852322608                000000025320002532905000002729 0000002481092018092118          EDERZ092118080645E           A 00000002481      202 W. MONSERATTE       RITA'S HAIR RAZORS      01-0710-02    01001     LOC:                    MTR:80112351                                                                                                                                                                                     01-0710-0201001                         1000
01            002040FLASHDL51852800957   1852800957                000000000000000000000000000000 0000000000092018092118          EDERZ092118075538E           I 00000000000      220 W. MONSERATTE       ---IDLE METER---        01-0720-99    01001     LOC:                    MTR:80114171                                                                                                                                                                                     01-0720-9901001                         6000
01            002070FLASHDL51852311590   1852311590                000000009860000986164000001198 0000000982092018092118          EDERZ092118075716E           A 00000000982      214 W. MONSERATTE       ROGER PERGESON          01-0730-05    01001     LOC:                    MTR:80114377                                                                                                                                                                                     01-0730-0501001                         4000
01            002076FLASHDL61481420056   1481420056                000008990000000899000000901362 0000896794092018092118          EDERZ092118075914R           A 00000887655      302 W. MONSERATTE 2     CITY OF EC/WELL METER   01-0725-00    02002     LOC:                    MTR:70216022                                                                                                                                                                                     01-0725-0002002                             
01            003000FLASHDL51850031203   1850031203                000000013820001382554000001568 0000001305092018092118          EDERZ092118075541E           A 00000001305      301 W. JACKSON          TG TRUCKING             01-0740-10    01001     LOC:                    MTR:49494784                                                                                                                                                                                     01-0740-1001001                         0010
01            003030FLASHDL51852804037   1852804037                000000017690001769733000001831 0000001436092018092118          EDERZ092118075750E           A 00000001436      402 W. MONSERATTE       PEARL BEER DIST. CO.    01-0750-00    01001     LOC:                    MTR:80114172                                                                                                                                                                                     01-0750-0001001                         0062
01            003120FLASHDL51852357380   1852357380                000000000000000000001000000000 0000000000092018092118          EDERZ092118075828E           I 00000000000      506 W. RAILROAD         ---IDLE METER---        01-0780-99    01001     LOC:                    MTR:80114167                                                                                                                                                                                     01-0780-9901001                         6000
01            003180FLASHDL51852366143   1852366143                000000023250002325197000002413 0000002191092018092118          EDERZ092118080828E           A 00000002191      510 W. RAILROAD         OCHOA SERVICES          01-0800-09    01001     LOC:                    MTR:80113545                                                                                                                                                                                     01-0800-0901001                         2010
01            003210FLASHDL51833039590   1833039590                000000015720001572221000001829 0000001570092018092118          EDERZ092118080636E           A 00000001570      207 W. FIRST            SOLIS, RICARDO          01-0810-05    01001     LOC:                    MTR:91879708                                                                                                                                                                                     01-0810-0501001                         5000
01            003240FLASHDL51852787235   1852787235                000000001570000157248000000348 0000000131092018092118          EDERZ092118080623E           A 00000000131      205 W. FIRST            PISCES NAIL SALON       01-0820-04    01001     LOC:                    MTR:80114168                                                                                                                                                                                     01-0820-0401001                         1000
01            003270FLASHDL51831937383   1831937383                000000006250000625957000000852 0000000611092018092118          EDERZ092118075918E           A 00000000611      201 W. FIRST            ROD, GARRETT J          01-0830-04    01001     LOC:                    MTR:90837418                                                                                                                                                                                     01-0830-0401001                         2020
01            003280FLASHDL51852348568   1852348568                000000016570001657455000001822 0000001570092018092118          EDERZ092118075935E           A 00000001570      212 ALAMO               YOUNG, LAWRENCE M.      01-0840-00    01001     LOC:                    MTR:80112603                                                                                                                                                                                     01-0840-0001001                         0010
01            003310FLASHDL51543563840   1543563840                000000000000000000006000000200 0000000200092018092118          EDERZ092118075856E           A 00000000000      224 W. FIRST            CITY OF EC / ALAMO PARK 01-9100-00    01002     LOC:                    MTR:49494775                                                                                                                                                                                     01-9100-0001002                         6000
01            003311FLASHDL51832498063   1832498063                000000030340003034940000003133 0000002918092018092118          EDERZ092118075922E           A 00000002918      224 W. FIRST            CITY OF EC / ALAMO PARK 01-9100-00    01003     LOC:                    MTR:80165385                                                                                                                                                                                     01-9100-0001003                         5000
01            003315FLASHDL51834562315   1834562315                000000083780008378455000008597 0000008210092018092118        ##EDERZ092118075923E           A 00000008210      226 W. FIRST            CITY OF EC/ ALAMO PARK- 01-9200-00    01001     LOC:MTR BY PAVILLION-FIRMTR:80114012                                                                                                                                                                                     01-9200-0001001                         0010
01            003325FLASHDL61852324966   1852324966                000000069540000695489000006994 0000006594092018092118        ##EDERZ092118075907E           A 00000006324      224 W. FIRST            CITY OF EC / ALAMO PARK 01-9100-00    01001     LOC:MTR- MIDDLE OF BLK- MTR:60419549                                                                                                                                                                                     01-9100-0001001                         4020
01            003330FLASHDL51852803212   1852803212                000000010510001051311000001250 0000001015092018092118          EDERZ092118122344E           A 00000001015      123 W. FIRST            TEXANA CENTER           01-0850-01    01001     LOC:                    MTR:80114176                                                                                                                                                                                     01-0850-0101001                         1000
01            003331FLASHDL51852258105   1852258105                000000021080002108550000002307 0000002074092018092118          EDERZ092118075825E           A 00000002074      123 W. FIRST            TEXANA CENTER           01-0850-01    01002     LOC:                    MTR:80112601                                                                                                                                                                                     01-0850-0101002                         4000
01            003360FLASHDL51850704374   1850704374                000000028570002857508000003047 0000002816092018092118          EDERZ092118075920E           A 00000002816      113 W. FIRST            COVINGTON CREDIT        01-0860-02    01001     LOC:                    MTR:49494783                                                                                                                                                                                     01-0860-0201001                         0061
01            003390FLASHDL51852802288   1852802288                000000000570000057191000000257 0000000143092018092118          EDERZ092118075929E           A 10000000052      105 W. FIRST            LK ACQUISITIONS         01-0870-05    01001     LOC:                    MTR:80112350                                                                                                                                                                                     01-0870-0501001                         2000
01            003420FLASHDL51850195927   1850195927                000000034340003434498000003650 0000003403092018092118          EDERZ092118075853E           A 00000003403      124 S. MECHANIC         USPS EL CAMPO 48-2780   01-0880-00    01001     LOC:                    MTR:49494786                                                                                                                                                                                     01-0880-0001001                         1000
01            003450FLASHDL51546586772   1546586772                000000002460000246761000000446 0000000238092018092118          EDERZ092118075752E           A 00000000238      101 W. FIRST A          POLASEK CONSTRUCTION    01-0890-00    01001     LOC:                    MTR:49494785                                                                                                                                                                                     01-0890-0001001                         0000
01            003455FLASHDL51543566376   1543566376                000000012290001229436000001384 0000001157092018092118          EDERZ092118075828E           A 00000001157      101 W. FIRST B          MARY R. WILLIAMSON      01-0895-01    01001     LOC:                    MTR:49494778                                                                                                                                                                                     01-0895-0101001                         1030
01            003480FLASHDL51852809801   1852809801                000000026550002655173000002840 0000002586092018092118          EDERZ092118075851E           A 00000002586      104 E. FIRST            EXPRESS GRILL           01-0900-04    01001     LOC:                    MTR:80114177                                                                                                                                                                                     01-0900-0401001                         0152
01            003510FLASHDL51547894064   1547894064                000000015970001597833000001776 0000001376092018092118          EDERZ092118075847E           A 00000001261      137 S. MECHANIC         THE GREEK BROS., INC.   01-0910-00    01001     LOC:                    MTR:80114178                                                                                                                                                                                     01-0910-0001001                         0062
01            003540FLASHDL51852320557   1852320557                000000053950005395621000005613 0000005308092018092118          EDERZ092118075741E           A 00000005308      129 S. MECHANIC         THE GREEK BROS., INC.   01-0920-00    01001     LOC:                    MTR:80114173                                                                                                                                                                                     01-0920-0001001                         0051
01            003550FLASHDL51852335131   1852335131                000000002720000272364000000472 0000000268092018092118          EDERZ092118080557E           A 00000000268      201 S. MECHANIC         COASTAL TITLE COMPANY   01-0905-01    01001     LOC:                    MTR:80112290                                                                                                                                                                                     01-0905-0101001                         2000
01            003570FLASHDL51852808292   1852808292                000000002390000239252000000445 0000000237092018092118          EDERZ092118075829E           A 00000000237      123 S. MECHANIC         GOYNES & CO             01-0930-05    01001     LOC:                    MTR:80114174                                                                                                                                                                                     01-0930-0501001                         1000
01            003600FLASHDL51852777869   1852777869                000000001000000100302000000299 0000000101092018092118          EDERZ092118075824E           A 10000000097      121 S. MECHANIC         CEDAR CHEST QUILT SHOPPE01-0940-02    01001     LOC:                    MTR:80113548                                                                                                                                                                                     01-0940-0201001                         2000
01            003630FLASHDL51852808565   1852808565                000000004840000484186000000681 0000000470092018092118          EDERZ092118075901E           A 00000000470      119 S. MECHANIC         WHITE'S HOME & AUTO     01-0950-00    01001     LOC:                    MTR:80165342                                                                                                                                                                                     01-0950-0001001                         0020
01            003690FLASHDL51834769517   1834769517                000000003600000360759000000360 0000000360092018092118          EDERZ092118074008E           I 00000000360      109 S. MECHANIC         ---IDLE METER---        01-0970-99    01001     LOC:                    MTR:80114175                                                                                                                                                                                     01-0970-9901001                         6000
01            003720FLASHDL51852320537   1852320537                000000004600000460999000000460 0000000460092018092118          EDERZ092118075848E           I 00000000460      107 S. MECHANIC         ---IDLE METER---        01-0980-99    01001     LOC:                    MTR:80114211                                                                                                                                                                                     01-0980-9901001                         6000
01            003750FLASHDL51540399538   1540399538                000000012900001290687000001503 0000001239092018092118          EDERZ092118075618E           A 00000001239      101 S. MECHANIC         ALLGAYER, JEFF          01-0990-01    01001     LOC:                    MTR:49494741                                                                                                                                                                                     01-0990-0101001                         0010
01            003780FLASHDL51852811444   1852811444                000000013820001382259000001607 0000001373092018092118          EDERZ092118075812E           A 00000001373      111 S. MECHANIC         WHITE'S HOME & AUTO     01-1000-00    01001     LOC:                    MTR:80113543                                                                                                                                                                                     01-1000-0001001                         2000
01            003870FLASHDL51852807427   1852807427                000000043720004372717000004538 0000004138092018092118          EDERZ092118075815E           A 00000004096      110 W. RAILROAD         MAREK PROPERTY INT.     01-1030-04    01001     LOC:                    MTR:80114210                                                                                                                                                                                     01-1030-0401001                         0061
01            003875FLASHDL51834645071   1834645071                000000080020008002086000008111 0000007864092018092118          EDERZ092118075847E           A 00000007864      110 W. RAILROAD         MAREK PROPERTY INT.     01-1030-04    01002     LOC:                    MTR:93015503                                                                                                                                                                                     01-1030-0401002                         0051
01            003930FLASHDL51852320327   1852320327                000000013850001385077000001580 0000001364092018092118          EDERZ092118074006E           A 00000001364      114 E. RAILROAD         MAYRA'S SALON DE BELLEZA01-1050-00    01001     LOC:                    MTR:80114213                                                                                                                                                                                     01-1050-0001001                         2100
01            003960FLASHDL51852322543   1852322543                000000006910000691647000000894 0000000672092018092118        SIEDERZ092118080655E           A 00000000672      114 S. WASHINGTON       RAUL TABAREZ            01-1060-02    01001     LOC:SIDE OF YARD        MTR:80114212                                                                                                                                                                                     01-1060-0201001                         2020
01            004145FLASHDL51546608358   1546608358                000000007170000717214000000916 0000000678092018092118          EDERZ092118075803E           A 00000000678      107 E. FIRST            TORTILLERIA CRYSTAL     01-1120-02    01002     LOC:                    MTR:53456993                                                                                                                                                                                     01-1120-0201002                         0030
01            004170FLASHDL51852811082   1852811082                000000019130001913944000002112 0000001877092018092118          EDERZ092118080647E           A 00000001877      138 E. FIRST            THE CRISIS CENTER, INC. 01-1130-02    01001     LOC:                    MTR:80114189                                                                                                                                                                                     01-1130-0201001                         0051
01            004200FLASHDL51852803609   1852803609                000000000000000000001000000000 0000000000092018092118          EDERZ092118075815E           I 00000000000      134 S. WASHINGTON       ---IDLE METER---        01-1140-99    01001     LOC:                    MTR:80112349                                                                                                                                                                                     01-1140-9901001                         6000
01            004230FLASHDL51832630084   1832630084                000000017550001755652000001934 0000001705092018092118          EDERZ092118075759E           A 00000001705      109 S. WASHINGTON       ICM HOLDINGS, LLC       01-1150-02    01001     LOC:                    MTR:49494718                                                                                                                                                                                     01-1150-0201001                         2000
01            004260FLASHDL51850189385   1850189385                000000042550004255875000004467 0000004219092018092118          EDERZ092118075614E           A 00000004219      206 E. RAILROAD         NINE POINT GRAIN        01-1160-01    01001     LOC:                    MTR:80787850                                                                                                                                                                                     01-1160-0101001                         1040
01            004290FLASHDL61543715822   1543715822                000000016900000169057000001909 0000001647092018092118          EDERZ092118074011E           A 00000001647      208 E. MONSERATTE       NINE-POINT GRAIN INC.   01-1170-00    01001     LOC:                    MTR:60419538                                                                                                                                                                                     01-1170-0001001                         0030
01            004310FLASHDL51852825890   1852825890                000000002450000245870000000443 0000000237092018092118          EDERZ092118074139E           A 00000000237      407 E. FIRST            RICE FARMERS CO-OP      01-1175-00    01001     LOC:                    MTR:80165425                                                                                                                                                                                     01-1175-0001001                         1000
01            004315FLASHDL51852427795   1852427795                000000004320000432484000000640 0000000422092018092118          EDERZ092118084710E           A 00000000422      408 E. FIRST            NINE POINT GRAIN        01-1176-00    01001     LOC:                    MTR:67265586                                                                                                                                                                                     01-1176-0001001                         1000
01            004320FLASHDL51852806563   1852806563                000000007230000723843000000929 0000000703092018092118          EDERZ092118075653E           A 00000000703      409 E. FIRST            RICE FARMERS COOP, INC. 01-1180-00    01001     LOC:                    MTR:80165428                                                                                                                                                                                     01-1180-0001001                         1000
01            004410FLASHDL61852299039   1852299039                000000000240000002405000000224 0000000176092018092118          EDERZ092118074009E           A 10000000024      515 E. FIRST .1         RICE FARMERS CO-OP      01-1210-01    01001     LOC:                    MTR:60419138                                                                                                                                                                                     01-1210-0101001                         6000
01            004440FLASHDL51542643444   1542643444                000000000660000066120000000263 0000000137092018092118          EDERZ092118074005E           A 10000000057      109 HIGBEE              PAK PETROLEUM MKT, INC. 01-1220-03    01001     LOC:                    MTR:80112793                                                                                                                                                                                     01-1220-0301001                         1000
01            004500FLASHDL51852294919   1852294919                000000000000000000001000000200 0000000200092018092118          EDERZ092118074123E           A 00000000000      610 E. MONSERATTE       CITY OF EC/SERVICE CENTE01-1240-01    01001     LOC:                    MTR:80114623                                                                                                                                                                                     01-1240-0101001                         6000
01            004501FLASHDL51834406226   1834406226                000000007270000727123000000931 0000000727092018092118          EDERZ092118074005E           A 00000000727      610 E. MONSERATTE       CITY OF EC/SERVICE CENTE01-1240-01    01002     LOC:                    MTR:92745234                                                                                                                                                                                     01-1240-0101002                         6000
01            004520FLASHDL61852325876   1852325876                000000072320000723278000007503 0000007103092018092118          EDERZ092118074008E           A 00000007048      618 E. MONSERATTE       CITY OF EC / SERVICE CEN01-1245-00    01001     LOC:                    MTR:60728019                                                                                                                                                                                     01-1245-0001001                         2000
01            004521FLASHDL61852000214   1852000214                000000035180000351899000003698 0000003337092018092118          EDERZ092118074004E           A 00000003337      618 E. MONSERATTE       CITY OF EC / SERVICE CEN01-1245-00    01002     LOC:                    MTR:60419562                                                                                                                                                                                     01-1245-0001002                         0051
01            004530FLASHDL51852320511   1852320511                000000000000000000001000000000 0000000000092018092118          EDERZ092118074022E           I 00000000000      605 E. MONSERATTE       ---IDLE METER---        01-1250-99    01001     LOC:                    MTR:80114185                                                                                                                                                                                     01-1250-9901001                         6000
01            004560FLASHDL51850712333   1850712333                000000003380000338179000000537 0000000335092018092118          EDERZ092118074026E           A 00000000335      101 PIERCE              EL CAMPO ENG. & COMPRESS01-1260-00    01001     LOC:                    MTR:80114186                                                                                                                                                                                     01-1260-0001001                         2000
01            004590FLASHDL51850023531   1850023531                000000012110001211280000001415 0000001183092018092118          EDERZ092118074031E           A 00000001183      510 E. MONSERATTE       RICE FARMER'S COOP DRIER01-1270-00    01001     LOC:                    MTR:49494720                                                                                                                                                                                     01-1270-0001001                         2000
01            004620FLASHDL51852787850   1852787850                000000030730003073053000003292 0000002984092018092118          EDERZ092118074031E           A 00000002984      106 MARKET              RICE FARMERS COOP, INC. 01-1280-00    01001     LOC:                    MTR:80114187                                                                                                                                                                                     01-1280-0001001                         0061
01            004710FLASHDL51547906002   1547906002                000000000960000096813000000307 0000000093092018092118          EDERZ092118074113E           A 00000000071      102 MAIN                MARC WELFEL             01-1310-01    01001     LOC:                    MTR:80114184                                                                                                                                                                                     01-1310-0101001                         0062
02            000120FLASHDL51852822497   1852822497                000000012550001255874000001454 0000001208092018092118          EDERZ092118080840E           A 00000001208      111 AVE. D D            TRISTIAN, MARY          02-0040-01    01001     LOC:                    MTR:80112602                                                                                                                                                                                     02-0040-0101001                         0010
02            000150FLASHDL51852335124   1852335124                000000011450001145910000001326 0000001090092018092118          EDERZ092118080833E           A 00000001090      803 W. JACKSON          GARY TUPA PLBG. CONTRACT02-0050-00    01001     LOC:                    MTR:80114183                                                                                                                                                                                     02-0050-0001001                         0030
02            000240FLASHDL51852320312   1852320312                000000020950002095969000002278 0000002057092018092118          EDERZ092118081523E           A 00000002057      707 W. MONSERATTE       BALDERAS, MARIO         02-0080-02    01001     LOC:                    MTR:80112925                                                                                                                                                                                     02-0080-0201001                         0010
02            000270FLASHDL51852814230   1852814230                000000008810000881129000001052 0000000801092018092118          EDERZ092118080744E           A 00000000801      611 W. MONSERATTE       ARRAMBIDE, SILVESTRE    02-0090-05    01001     LOC:                    MTR:80112926                                                                                                                                                                                     02-0090-0501001                         0062
02            000330FLASHDL51852331935   1852331935                000000009060000906338000001123 0000000877092018092118          EDERZ092118080803E           A 00000000877      525 W. MONSERATTE       JUAREZ, JOSE A          02-0110-13    01001     LOC:                    MTR:80784592                                                                                                                                                                                     02-0110-1301001                         0000
02            000360FLASHDL51852331929   1852331929                000000000570000057854000000258 0000000142092018092118          EDERZ092118075912E           A 10000000057      519 W. MONSERATTE       SALAZAR, SANDY M        02-0120-06    01001     LOC:                    MTR:80114378                                                                                                                                                                                     02-0120-0601001                         4000
02            000390FLASHDL51852366800   1852366800                000000013550001355530000001557 0000001336092018092118          EDERZ092118080751E           A 00000001336      517 W. MONSERATTE       ARANDA, RITA V          02-0130-02    01001     LOC:                    MTR:80112930                                                                                                                                                                                     02-0130-0201001                         0000
02            000400FLASHDL51852795826   1852795826                000000000110000011680000000011 0000000011092018092118          EDERZ092118130247E           I 00000000011      723 MARIANETTE          ---IDLE METER---        02-0135-99    01001     LOC:                    MTR:89393636                                                                                                                                                                                     02-0135-9901001                         6000
02            000450FLASHDL51852363169   1852363169                000000021040002104266000002290 0000002050092018092118          EDERZ092118075801E           A 00000002050      409 W. MONSERATTE       BRYANT, LEROY N         02-0150-24    01001     LOC:                    MTR:80112439                                                                                                                                                                                     02-0150-2401001                         0020
02            000480FLASHDL51852822502   1852822502                000000027860002786579000003014 0000002743092018092118          EDERZ092118080811E           A 00000002743      311 W. RAILROAD         GARZA, ROBERT R         02-0160-00    01001     LOC:                    MTR:80112440                                                                                                                                                                                     02-0160-0001001                         0030
02            000490FLASHDL51832498398   1832498398                000000018200001820533000002008 0000001787092018092118          EDERZ092118081555E           A 00000001787      310 W. FIRST            MENDOZA, JOSE H         02-0170-08    01001     LOC:                    MTR:80112442                                                                                                                                                                                     02-0170-0801001                         0052
02            000510FLASHDL51832498071   1832498071                000000028090002809488000003011 0000002778092018092118          EDERZ092118081559E           A 00000002778      312 W. FIRST            CASTILLO, GREGORIO      02-0180-05    01001     LOC:                    MTR:80112444                                                                                                                                                                                     02-0180-0501001                         0000
02            000540FLASHDL51850361416   1850361416                000000030880003088192000003296 0000003040092018092118          EDERZ092118075914E           A 00000003040      102 OSCAR               R. A. CHOMOUT           02-0190-00    01001     LOC:                    MTR:80114182                                                                                                                                                                                     02-0190-0001001                         0000
02            000560FLASHDL51850350603   1850350603                000000022550002255132000002447 0000002221092018092118          EDERZ092118122420E           A 00000002221      108 OSCAR               FALCON, DANIEL          02-0210-01    01001     LOC:                    MTR:80785463                                                                                                                                                                                     02-0210-0101001                         0020
02            000570FLASHDL51852808662   1852808662                000000009050000905617000001146 0000000904092018092118          EDERZ092118080630E           A 00000000904      309 W. RAILROAD         GARCIA, REYNALDO        02-0200-01    01001     LOC:                    MTR:80112441                                                                                                                                                                                     02-0200-0101001                         5000
02            000630FLASHDL51850712778   1850712778                000000014330001433179000001648 0000001404092018092118          EDERZ092118075812E           A 00000001404      202 OSCAR               TORTILLERIA LA FINCA    02-0220-02    01001     LOC:                    MTR:80114179                                                                                                                                                                                     02-0220-0201001                         2020
02            000660FLASHDL51852806009   1852806009                000000003170000317103000000518 0000000304092018092118          EDERZ092118080635E           A 00000000304      223 W. FIRST            BALDERAS, VERONICA      02-0230-00    01001     LOC:                    MTR:80165406                                                                                                                                                                                     02-0230-0001001                         0000
02            000720FLASHDL51852320398   1852320398                000000005900000590423000000796 0000000586092018092118          EDERZ092118080607E           A 00000000586      213 W. FIRST            MEDRANO, GONZALO        02-0250-00    01001     LOC:                    MTR:80165407                                                                                                                                                                                     02-0250-0001001                         0000
02            000750FLASHDL51852779005   1852779005                000000010070001007570000001204 0000000963092018092118          EDERZ092118075830E           A 00000000963      209 W. FIRST            VERA, GLORIA S          02-0260-02    01001     LOC:                    MTR:80112915                                                                                                                                                                                     02-0260-0201001                         0062
02            000780FLASHDL51852348918   1852348918                000000018550001855860000002063 0000001825092018092118          EDERZ092118075915E           A 00000001825      307 W. FIRST            GREELY, EBONY D         02-0270-02    01001     LOC:                    MTR:80112443                                                                                                                                                                                     02-0270-0201001                         0000
02            000785FLASHDL51852806346   1852806346                000000000040000004660000000004 0000000004092018092118          EDERZ092118081623E           I 00000000004      402 W. FIRST            ---IDLE METER---        02-0275-99    01001     LOC:                    MTR:80165409                                                                                                                                                                                     02-0275-9901001                         6000
02            000800FLASHDL51852805612   1852805612                000000017870001787920000001983 0000001731092018092118          EDERZ092118122132E           A 00000001731      413 W. FIRST            SHORTER, SHIRLEY J      02-0295-00    01001     LOC:                    MTR:89393639                                                                                                                                                                                     02-0295-0001001                         0000
02            000840FLASHDL51852806252   1852806252                000000018730001873126000002047 0000001769092018092118          EDERZ092118080651E           A 00000001769      201 LINCOLN             TORRES, CRESCENCIA      02-0290-01    01001     LOC:                    MTR:80165411                                                                                                                                                                                     02-0290-0101001                         0061
02            000860FLASHDL51852811727   1852811727                000000010980001098710000001323 0000001074092018092118          EDERZ092118080754E           A 00000001074      401 W. FIRST            PALMER, PATRICIA M      02-0300-01    01001     LOC:                    MTR:80165410                                                                                                                                                                                     02-0300-0101001                         0000
02            000870FLASHDL51852787534   1852787534                000000008980000898633000001107 0000000870092018092118          EDERZ092118080808E           A 00000000870      201 BELLMAN             SANCHEZ, ESMERALDA      02-0310-10    01001     LOC:                    MTR:80787897                                                                                                                                                                                     02-0310-1001001                         0000
02            000890FLASHDL51852779167   1852779167                000000030700003070874000003221 0000002879092018092118          EDERZ092118122123E           A 00000002879      205 BELLMAN             SANCHEZ, VIRGIE         02-0330-08    01001     LOC:                    MTR:80112393                                                                                                                                                                                     02-0330-0801001                         0020
02            000900FLASHDL51852323001   1852323001                000000024420002442101000002677 0000002413092018092118          EDERZ092118081523E           A 00000002413      505 W. FIRST            GARCIA-REYES, VIRGILIO  02-0340-21    01001     LOC:                    MTR:80112394                                                                                                                                                                                     02-0340-2101001                         0000
02            000930FLASHDL51852313465   1852313465                000000013710001371805000001553 0000001324092018092118          EDERZ092118080659E           A 00000001324      503 W. FIRST            GARCIA, MARY T.         02-0350-00    01001     LOC:                    MTR:80112395                                                                                                                                                                                     02-0350-0001001                         0000
02            000950FLASHDL51852427774   1852427774                000000000160000016740000000216 0000000184092018092118          EDERZ092118080632E           A 10000000016      105 TEGNER              FUENTE DE AQUA VIVA EL C02-0355-00    01001     LOC:                    MTR:67265587                                                                                                                                                                                     02-0355-0001001                         6000
02            000990FLASHDL51550213738   1550213738                000000001830000183746000000398 0000000090092018092118          EDERZ092118080754E           A 00000000090      205 TEGNER              RAMIREZ, MARY           02-0370-00    01001     LOC:                    MTR:80113633                                                                                                                                                                                     02-0370-0001001                         0020
02            001010FLASHDL51852823599   1852823599                000000009180000918611000001119 0000000886092018092118          EDERZ092118110612E           A 00000000886      708 W. SECOND           ASHTON, ERMA M          02-0510-05    01001     LOC:                    MTR:80114023                                                                                                                                                                                     02-0510-0501001                         0000
02            001015FLASHDL51852417311   1852417311                000000018430001843649000001843 0000001843092018092118          EDERZ092118080927E           I 00000001843      711 W. SECOND           ---IDLE METER---        02-0518-99    01001     LOC:                    MTR:67265583                                                                                                                                                                                     02-0518-9901001                         6000
02            001050FLASHDL51852322619   1852322619                000000009650000965229000001170 0000000950092018092118          EDERZ092118081537E           A 00000000950      410 W. SECOND           BELL, ELLA MAE          02-0390-00    01001     LOC:                    MTR:80113635                                                                                                                                                                                     02-0390-0001001                         0000
02            001080FLASHDL51852322622   1852322622                000000041840004184817000004390 0000004136092018092118          EDERZ092118080832E           A 00000004136      502 W. SECOND           GARCIA, LILLIAN R       02-0400-02    01001     LOC:                    MTR:80113636                                                                                                                                                                                     02-0400-0201001                         0020
02            001110FLASHDL51850266500   1850266500                000000003670000367631000000567 0000000363092018092118          EDERZ092118085951E           A 00000000363      504 W. SECOND           GUADALUPE LOREDO        02-0410-02    01001     LOC:                    MTR:80113637                                                                                                                                                                                     02-0410-0201001                         2000
02            001170FLASHDL51852356371                             0                    000000202 0000000198092018092118            EUZ                        A  0000000002      506 W. SECOND           SALDANA, JANIE          02-0430-01    01001     LOC:                    MTR:80113638                                                                                                                                                                                     02-0430-0101001                             
02            001180FLASHDL51833084498   1833084498                000000004890000489124000000684 0000000465092018092118          EDERZ092118080822E           A 00000000465      507 W. SECOND           SPANISH E.C.- TX CONGREG02-0435-00    01001     LOC:                    MTR:60771930                                                                                                                                                                                     02-0435-0001001                         1020
02            001230FLASHDL51852803721   1852803721                000000020810002081370000002307 0000002037092018092118          EDERZ092118090008E           A 00000002037      606 W. SECOND           ALLEN, LETISHA R        02-0450-06    01001     LOC:                    MTR:80112761                                                                                                                                                                                     02-0450-0601001                         0000
02            001260FLASHDL51850712095   1850712095                000000038810003881151000004099 0000003837092018092118          EDERZ092118122531E           A 00000003837      608 W. SECOND           HEBERT, TAMMY           02-0460-00    01001     LOC:                    MTR:80113776                                                                                                                                                                                     02-0460-0001001                         0000
02            001290FLASHDL51852805766   1852805766                000000002770000277072000000470 0000000261092018092118          EDERZ092118090019E           A 00000000261      610 W. SECOND           HINOJOSA, JUAN          02-0470-00    01001     LOC:                    MTR:80112500                                                                                                                                                                                     02-0470-0001001                         0000
02            001320FLASHDL51852320432   1852320432                000000011200001120587000001320 0000001094092018092118          EDERZ092118090027E           A 00000001094      107 VASA                ROBLES, GUADALUPE J     02-0480-04    01001     LOC:                    MTR:80112501                                                                                                                                                                                     02-0480-0401001                         0000
02            001350FLASHDL51852780802   1852780802                000000018980001898653000002142 0000001864092018092118          EDERZ092118122548E           A 00000001864      105 VASA                FARROW, CEDRIC          02-0490-00    01001     LOC:                    MTR:80112502                                                                                                                                                                                     02-0490-0001001                         0010
02            001385FLASHDL51850164650   1850164650                000000035790003579211000003799 0000003530092018092118          EDERZ092118090024E           A 00000003530      706 W. SECOND           PENN, FANNIE            02-0520-00    01001     LOC:                    MTR:93645277                                                                                                                                                                                     02-0520-0001001                         0010
02            001390FLASHDL51540997184   1540997184                000000017570001757343000001924 0000001650092018092118          EDERZ092118080753E           A 00000001650      720 W. SECOND           CITY OF EC / WILLIE BELL02-9000-00    01001     LOC:                    MTR:49574638                                                                                                                                                                                     02-9000-0001001                         0000
02            001615FLASHDL51542674372   1542674372                000000007480000748855000000992 0000000743092018092118          EDERZ092118080837E           A 00000000743      701 NELSON              ROSILES, ANTHONY A      02-0515-00    01001     LOC:                    MTR:93015508                                                                                                                                                                                     02-0515-0001001                         2000
02            001620FLASHDL51850165870   1850165870                000000022290002229862000002448 0000002209092018092118          EDERZ092118081429E           A 00000002209      705 NELSON              REBECTOR, RILEY L       02-0525-00    01001     LOC:                    MTR:93645274                                                                                                                                                                                     02-0525-0001001                         0010
02            001650FLASHDL51852341701   1852341701                000000013550001355823000001519 0000001277092018092118          EDERZ092118080835E           A 00000001277      706 NELSON              HUNT, BONNIE R          02-0590-14    01001     LOC:                    MTR:80785337                                                                                                                                                                                     02-0590-1401001                         0042
02            001710FLASHDL51850581169   1850581169                000000034330003433927000003657 0000003397092018092118          EDERZ092118080808E           A 00000003397      701 W. FIRST            LAWTON, ERNEST          02-0610-00    01001     LOC:                    MTR:80112762                                                                                                                                                                                     02-0610-0001001                         0000
02            001860FLASHDL51852346100   1852346100                000000002450000245077000000446 0000000245092018092118          EDERZ092118090022E           A 00000000245      503 W. SECOND           RUIZ UPHOLSTERY         02-0650-00    01001     LOC:                    MTR:80114304                                                                                                                                                                                     02-0650-0001001                         5000
02            001890FLASHDL51852810468   1852810468                000000007950000795870000000990 0000000762092018092118          EDERZ092118090021E           A 00000000762      307 TEGNER              MERLOS, MARY            02-0660-00    01001     LOC:                    MTR:80165442                                                                                                                                                                                     02-0660-0001001                         0000
02            001950FLASHDL51852811424   1852811424                000000000000000000000000000000 0000000000092018092118          EDERZ092118090011E           I 00000000000      402 TEGNER              ---IDLE METER---        02-0680-99    01001     LOC:                    MTR:80165443                                                                                                                                                                                     02-0680-9901001                         6000
02            001980FLASHDL51852323006   1852323006                000000018420001842442000002044 0000001807092018092118          EDERZ092118090025E           A 00000001807      512 TEGNER              ST. ROBERT BELLARMINE'S 02-0690-00    01001     LOC:                    MTR:80787967                                                                                                                                                                                     02-0690-0001001                         0000
02            001981FLASHDL51850033505   1850033505                000000035360003536834000003576 0000003176092018092118          EDERZ092118080528E           A 00000003128      512 TEGNER              ST. ROBERT BELLARMINE'S 02-0690-00    01002     LOC:                    MTR:49574642                                                                                                                                                                                     02-0690-0001002                         4000
02            002010FLASHDL51852337197   1852337197                000000011880001188936000001387 0000001187092018092118          EDERZ092118080519E           A 00000001187      505 W. FIFTH            GONZALEZ, RUBEN         02-0700-00    01001     LOC:                    MTR:80165444                                                                                                                                                                                     02-0700-0001001                         6000
02            002040FLASHDL61852022620   1852022620                000000019030000190350000002091 0000001843092018092118          EDERZ092118085924E           A 00000001843      516 TEGNER              ST. ROBERT BELLARMINE PA02-0710-00    01001     LOC:                    MTR:60419125                                                                                                                                                                                     02-0710-0001001                         1010
02            002100FLASHDL51852356230   1852356230                000000017140001714801000001924 0000001688092018092118          EDERZ092118085903E           A 00000001688      403 W. FIFTH            FRAZIER, BYRON          02-0730-00    01001     LOC:                    MTR:80165445                                                                                                                                                                                     02-0730-0001001                         0000
02            002130FLASHDL51852383982   1852383982                000000008880000888060000001094 0000000853092018092118          EDERZ092118085901E           A 00000000853      510 LINCOLN             SHIMEK, DENNIS R.       02-0740-00    01001     LOC:                    MTR:80165447                                                                                                                                                                                     02-0740-0001001                         0110
02            002160FLASHDL51852815298   1852815298                000000011620001162965000001363 0000001129092018092118          EDERZ092118090002E           A 00000001129      401 W. FIFTH            ACUNA, STEPHEN          02-0750-00    01001     LOC:                    MTR:80165446                                                                                                                                                                                     02-0750-0001001                         1010
02            002190FLASHDL51852810466   1852810466                000000024420002442716000002652 0000002352092018092118          EDERZ092118080528E           A 00000002352      605 LINCOLN             L. L. WAGNER            02-0760-00    01001     LOC:                    MTR:80114180                                                                                                                                                                                     02-0760-0001001                         0051
02            002310FLASHDL51852359207   1852359207                000000020060002006560000002218 0000001964092018092118          EDERZ092118080022E           A 00000001964      511 LINCOLN 1/2         MARTINEZ, ARMANDO       02-0800-01    01001     LOC:                    MTR:80165370                                                                                                                                                                                     02-0800-0101001                         0010
02            002340FLASHDL51850712912   1850712912                000000019390001939832000002168 0000001916092018092118          EDERZ092118122055E           A 00000001916      503 LINCOLN             GONZALO, DOMINGUEZ-SANTI02-0810-01    01001     LOC:                    MTR:80165371                                                                                                                                                                                     02-0810-0101001                         0000
02            002370FLASHDL51850032085   1850032085                000000027360002736233000002934 0000002707092018092118          EDERZ092118090002E           A 00000002707      311 W. FOURTH           NUNEZ, LOUIS            02-0820-00    01001     LOC:                    MTR:80165372                                                                                                                                                                                     02-0820-0001001                         0000
02            002380FLASHDL51850043793   1850043793                000000016050001605566000001821 0000001573092018092118          EDERZ092118122109E           A 00000001573      405 LINCOLN             ARGUELLES, ALEJANDRO    02-0830-06    01001     LOC:                    MTR:80787484                                                                                                                                                                                     02-0830-0601001                         0051
02            002400FLASHDL51832498202   1832498202                000000041320004132792000004332 0000004132092018092118          EDERZ092118122100E           A 00000004132      312 W. FOURTH           WASHINGTON, LAURA HERRIN02-0840-00    01001     LOC:                    MTR:80165373                                                                                                                                                                                     02-0840-0001001                         6000
02            002430FLASHDL51850215719                             0                    000001456 0000001242092018092118            EUZ                        A  0000001242      505 LINCOLN             FUENTES, ROSA LINDA     02-0850-05    01001     LOC:                    MTR:80785318                                                                                                                                                                                     02-0850-0501001                             
02            002460FLASHDL51852811419   1852811419                000000070960007096215000007301 0000007095092018092118          EDERZ092118085925E           A 00000007095      507 LINCOLN             MCGLAUN, OPAL SHEPPERD  02-0860-01    01001     LOC:                    MTR:80785747                                                                                                                                                                                     02-0860-0101001                         5000
02            002490FLASHDL51852332299   1852332299                000000035750003575403000003852 0000003471092018092118          EDERZ092118085904E           A 00000003471      508 LINCOLN             ELLIS, MONTIERRA W      02-0870-22    01001     LOC:                    MTR:80112714                                                                                                                                                                                     02-0870-2201001                         0030
02            002520FLASHDL51852823733   1852823733                000000008520000852188000001049 0000000822092018092118          EDERZ092118090026E           A 00000000822      505 TEGNER              CANALES, JENNIFER L     02-0880-06    01001     LOC:                    MTR:80112917                                                                                                                                                                                     02-0880-0601001                         0000
02            002550FLASHDL51852813526   1852813526                000000020640002064780000002266 0000001993092018092118          EDERZ092118085907E           A 00000001993      506 LINCOLN             COX, JOHN               02-0890-01    01001     LOC:                    MTR:80112916                                                                                                                                                                                     02-0890-0101001                         0020
02            002580FLASHDL51852811427   1852811427                000000011350001135218000001342 0000001106092018092118          EDERZ092118080523E           A 00000001106      503 TEGNER              EARLS, JOYCE J          02-0900-01    01001     LOC:                    MTR:80114206                                                                                                                                                                                     02-0900-0101001                         0010
02            002610FLASHDL51852359093   1852359093                000000010040001004607000001201 0000000960092018092118          EDERZ092118122118E           A 00000000960      501 TEGNER              HILL, YSABEL            02-0910-04    01001     LOC:                    MTR:80112914                                                                                                                                                                                     02-0910-0401001                         0030
02            002640FLASHDL51852347378   1852347378                000000011160001116797000001322 0000001099092018092118          EDERZ092118121508E           A 00000001099      502 LINCOLN             HERNANDEZ, JOE, JR      02-0920-04    01001     LOC:                    MTR:80165375                                                                                                                                                                                     02-0920-0401001                         2000
02            002670FLASHDL51834564298   1834564298                000000038070003807460000003995 0000003761092018092118          EDERZ092118090027E           A 00000003761      408 W. FOURTH           JOSE IGNACIO, ALDAVERA-R02-0930-01    01001     LOC:                    MTR:80112361                                                                                                                                                                                     02-0930-0101001                         1020
02            002700FLASHDL51852348524   1852348524                000000034000003400877000003653 0000003297092018092118          EDERZ092118122119E           A 00000003297      402 W. FOURTH           ESPERICUETA, MARIA L    02-0940-11    01001     LOC:                    MTR:80112662                                                                                                                                                                                     02-0940-1101001                         0040
02            002730FLASHDL51852812172   1852812172                000000011760001176384000001383 0000001133092018092118          EDERZ092118085950E           A 00000001133      408 LINCOLN             RODRIGUEZ, JOSE         02-0950-01    01001     LOC:                    MTR:80112913                                                                                                                                                                                     02-0950-0101001                         0000
02            002760FLASHDL51850346370   1850346370                000000000580000058033000000260 0000000140092018092118          EDERZ092118122114E           A 10000000055      406 LINCOLN             GRANADOS, DELFINO & MARI02-0960-00    01001     LOC:                    MTR:80112664                                                                                                                                                                                     02-0960-0001001                         4000
02            002790FLASHDL51850711895   1850711895                000000057680005768535000006020 0000005698092018092118          EDERZ092118122056E           A 00000005698      405 TEGNER              ROCHA, BEATRICE C       02-0970-01    01001     LOC:                    MTR:80112663                                                                                                                                                                                     02-0970-0101001                         0051
02            002820FLASHDL51834129298   1834129298                000000038390003839287000004052 0000003775092018092118          EDERZ092118085856E           A 00000003775      403 TEGNER              MANRIQUEZ, MARIANA      02-0980-08    01001     LOC:                    MTR:80112676                                                                                                                                                                                     02-0980-0801001                         0010
02            002880FLASHDL51852365085   1852365085                000000031040003104019000003330 0000003044092018092118          EDERZ092118075944E           A 00000003044      402 LINCOLN             LIMONES, JUAN           02-1000-00    01001     LOC:                    MTR:80165343                                                                                                                                                                                     02-1000-0001001                         0040
02            002910FLASHDL51852811384   1852811384                000000024130002413211000002619 0000002313092018092118          EDERZ092118090023E           A 00000002313      401 TEGNER              ALDAVERA, JOSE R        02-1010-07    01001     LOC:                    MTR:80112666                                                                                                                                                                                     02-1010-0701001                         0030
02            002940FLASHDL51834120218   1834120218                000000053260005326529000005326 0000005326092018092118          EDERZ092118085949E           I 00000005326      311 TEGNER              ---IDLE METER---        02-1020-99    01001     LOC:                    MTR:80165345                                                                                                                                                                                     02-1020-9901001                         6000
02            003000FLASHDL51852318064   1852318064                000000027640002764564000002964 0000002682092018092118          EDERZ092118122321E           A 00000002682      310 LINCOLN             GARCIA, PAUL            02-1040-04    01001     LOC:                    MTR:80165340                                                                                                                                                                                     02-1040-0401001                         0040
