01            000120FLASHDL51481695660   1481695660                000000040960000040960000004334 0000004082121714121814          EDERZ121714083439R           A 00000004082      1 N. MECHANIC           CHAMBER OF COMMERCE     01-0005-02    01001     LOC:                    MTR:51866971                                                                                                                                                                                     01-0005-0201001                             
01            000125FLASHDL51834032164   1834032164                000000001260000126257000000325 0000000121121714121814          EDERZ121714082921E           A 00000000121      8 N. WASHINGTON         GAZEBO                  01-0040-00    01001     LOC:                    MTR:80114292                                                                                                                                                                                     01-0040-0001001                         1000
01            000130FLASHDL51850361690   1850361690                000000013000001300507000001500 0000001231121714121814          EDERZ121714082802E           A 00000001231      2 N. WASHINGTON         MEXICO LINDO            01-0010-07    01001     LOC:                    MTR:80114264                                                                                                                                                                                     01-0010-0701001                         0010
01            000160FLASHDL51850031319   1850031319                000000021080002108530000002249 0000001997121714121814          EDERZ121714083142E           A 00000001997      2 N. WASHINGTON 1/2     DR. W. W. DUSON         01-0020-00    01001     LOC:                    MTR:80114290                                                                                                                                                                                     01-0020-0001001                         0040
01            000190FLASHDL51852320092   1852320092                000000000010000001454000000200 0000000200121714121814          EDERZ121714082819E           A 00000000000      4 N. WASHINGTON         LOWELL FARMS            01-0030-01    01001     LOC:                    MTR:80114291                                                                                                                                                                                     01-0030-0101001                         3000
01            000210FLASHDL51852321033   1852321033                000000000670000067780000000296 0000000104121714121814          EDERZ121714090324E           A 10000000042      207 E. MONSERATTE A     APPLING INC.            01-0070-00    01001     LOC:                    MTR:80114287                                                                                                                                                                                     01-0070-0001001                         2000
01            000240FLASHDL51852366817   1852366817                000000000890000089080000000291 0000000109121714121814          EDERZ121714083246E           A 10000000063      102 N. WASHINGTON       APPLING, INC.           01-0080-00    01001     LOC:                    MTR:80114288                                                                                                                                                                                     01-0080-0001001                         2010
01            000270FLASHDL51850042460   1850042460                000000000880000088339000000287 0000000113121714121814          EDERZ121714082817E           A 10000000082      106 N. WASHINGTON       EXECUTIVE STITCHES      01-0090-02    01001     LOC:                    MTR:80114289                                                                                                                                                                                     01-0090-0201001                         1000
01            000300FLASHDL51852365253   1852365253                000000000230000023341000000222 0000000178121714121814          EDERZ121714083028E           A 10000000018      108 N. WASHINGTON       PRAIRIE ROSE CLOTHIERS  01-0100-01    01001     LOC:                    MTR:80114265                                                                                                                                                                                     01-0100-0101001                         1000
01            000330FLASHDL51834765055   1834765055                000000003500000350854000000550 0000000342121714121814          EDERZ121714082816E           A 00000000342      110 N. WASHINGTON       PRAIRIE ROSE CLOTHIERS  01-0110-01    01001     LOC:                    MTR:80114263                                                                                                                                                                                     01-0110-0101001                         1000
01            000360FLASHDL51850206019   1850206019                000000001570000157476000000362 0000000152121714121814          EDERZ121714082801E           A 00000000152      207 E. MONSERATTE B     APPLING INC.            01-0120-00    01001     LOC:                    MTR:80114158                                                                                                                                                                                     01-0120-0001001                         2000
01            000420FLASHDL61470089882                             0                    000014332 0000014057121714121814            EUZ                        A  0000014057      200 E. JACKSON          NEW FIRST NATIONAL BANK 01-0140-00    01001     LOC:                    MTR:60419515                                                                                                                                                                                     01-0140-0001001                             
01            000430FLASHDL51490185824   1490185824                000000071780000071780000007373 0000007096121714121814          EDERZ121714082802R           A 00000007096      200 E. JACKSON          NEW FIRST NATIONAL BANK 01-0140-00    01002     LOC:                    MTR:51338623                                                                                                                                                                                     01-0140-0001002                             
01            000450FLASHDL51484021440   1484021440                000000006140000006145000000813 0000000601121714121814          EDERZ121714082759R           A 00000000601      110 MERCHANT            DRIVING SAFETY SERVICES 01-0150-02    01001     LOC:                    MTR:80114267                                                                                                                                                                                     01-0150-0201001                             
01            000510FLASHDL51484022514   1484022514                000000023630000023635000002589 0000002344121714121814          EDERZ121714082833R           A 00000002344      302 E. JACKSON          D & J DETAIL SERVICE    01-0170-06    01001     LOC:                    MTR:80114266                                                                                                                                                                                     01-0170-0601001                             
01            000540FLASHDL51852342950   1852342950                000000000250000025671000000232 0000000168121714121814          EDERZ121714082801E           A 10000000022      227 E. JACKSON          PARTY ANIMAL            01-0180-02    01001     LOC:                    MTR:80114242                                                                                                                                                                                     01-0180-0201001                         2000
01            000570FLASHDL51833124695   1833124695                000000000260000026969000000227 0000000173121714121814          EDERZ121714082808E           A 10000000026      223 E. JACKSON          THE TRAVEL STORE        01-0190-00    01001     LOC:                    MTR:80112704                                                                                                                                                                                     01-0190-0001001                         3000
01            000600FLASHDL51850363562   1850363562                000000000000000000001000000000 0000000000121714121814          EDERZ121714082831E           I 00000000000      207 E. JACKSON          ---IDLE METER---        01-0200-99    01001     LOC:                    MTR:80114063                                                                                                                                                                                     01-0200-9901001                         6000
01            000630FLASHDL51852320418   1852320418                000000000130000013706000000214 0000000186121714121814          EDERZ121714082959E           A 10000000009      205 E. JACKSON          EL CAMPO LEADER-NEWS    01-0210-00    01001     LOC:                    MTR:80114243                                                                                                                                                                                     01-0210-0001001                         2000
01            000660FLASHDL51852311594   1852311594                000000000000000000001000000200 0000000200121714121814          EDERZ121714082801E           A 00000000000      200 N. WASHINGTON       MIKESKA'S BAR-B-QUE     01-0220-00    01001     LOC:                    MTR:80114303                                                                                                                                                                                     01-0220-0001001                         6000
01            000690FLASHDL51470042552   1470042552                000000011310000011310000001327 0000001095121714121814          EDERZ121714082800R           A 00000001095      203 E. JACKSON          WHARTON COUNTY NEWSPAPER01-0230-00    01001     LOC:                    MTR:80114240                                                                                                                                                                                     01-0230-0001001                             
01            000720FLASHDL51852320997   1852320997                000000000840000084648000000277 0000000123121714121814          EDERZ121714082832E           A 10000000053      201 E. JACKSON          GLOBECOM MEDIA          01-0240-02    01001     LOC:                    MTR:80112496                                                                                                                                                                                     01-0240-0201001                         0062
01            000750FLASHDL51850365428   1850365428                000000021630002163793000002360 0000002034121714121814          EDERZ121714083429E           A 00000002034      205 N. WASHINGTON       NOVAK'S MEAT MARKET     01-0250-00    01001     LOC:                    MTR:80112742                                                                                                                                                                                     01-0250-0001001                         0061
01            000810FLASHDL51484022384   1484022384                000000060080000060085000006202 0000005970121714121814          EDERZ121714082826R           A 00000005970      211 N. WASHINGTON       RIOUX HARDWARE          01-0270-00    01001     LOC:                    MTR:80114244                                                                                                                                                                                     01-0270-0001001                             
01            000840FLASHDL51484010798   1484010798                000000002480000002485000000450 0000000245121714121814          EDERZ121714082803R           A 00000000245      117 E. JACKSON          ROYAL MANAGEMENT        01-0280-00    01001     LOC:                    MTR:80114241                                                                                                                                                                                     01-0280-0001001                             
01            000930FLASHDL51483714904   1483714904                000000026910000026910000002959 0000002687121714121814          EDERZ121714083107R           A 00000002687      202 N. MECHANIC         TEXAS CAR TITLE AND PAYD01-0320-04    01001     LOC:                    MTR:80112709                                                                                                                                                                                     01-0320-0401001                             
01            000960FLASHDL51484312056   1484312056                000000010210000010215000001219 0000000991121714121814          EDERZ121714082855R           A 00000000991      214 N. MECHANIC         SUPERIOR MOTOR PARTS, IN01-0330-00    01001     LOC:                    MTR:80114278                                                                                                                                                                                     01-0330-0001001                             
01            001020FLASHDL61832550459   1832550459                000000045040000450494000004193 0000003803121714121814          EDERZ121714083447E           A 10000003803      203 N. MECHANIC         WALGREENS #9739         01-0350-02    01001     LOC:                    MTR:60444092                                                                                                                                                                                     01-0350-0201001                         0062
01            001021FLASHDL61491356478   1491356478                000000102350000010235000010798 0000010398121714121814          EDERZ121714082934R           A 10000010235      203 N. MECHANIC         WALGREENS #9739         01-0350-02    01002     LOC:                    MTR:60430904                                                                                                                                                                                     01-0350-0201002                             
01            001140FLASHDL51482924200   1482924200                000000002670000002670000000466 0000000262121714121814          EDERZ121714083220R           A 00000000262      208 FAHRENTHOLD         JOHN PETTY REALTORS     01-0400-01    01001     LOC:                    MTR:80114259                                                                                                                                                                                     01-0400-0101001                             
01            001170FLASHDL51484276582   1484276582                000000007110000007115000000928 0000000706121714121814          EDERZ121714083440R           A 00000000706      118 W. JACKSON          WILLIS, GEO. P. OFFICE  01-0410-00    01001     LOC:                    MTR:80114258                                                                                                                                                                                     01-0410-0001001                             
01            001200FLASHDL51483707730   1483707730                000000014400000014405000001639 0000001429121714121814          EDERZ121714083426R           A 00000001429      202 FAHRENTHOLD         TOWN & COUNTRY REALESTAT01-0420-05    01001     LOC:                    MTR:80114257                                                                                                                                                                                     01-0420-0501001                             
01            001230FLASHDL51481144652                             0                    000005647 0000005444121714121814            EUZ                        A  0000005444      116 N. MECHANIC         BAR C  FINANCE          01-0430-05    01001     LOC:                    MTR:49310460                                                                                                                                                                                     01-0430-0501001                             
01            001260FLASHDL51852295071   1852295071                000000000480000048115000000239 0000000161121714121814          EDERZ121714083348E           A 10000000027      112 N. MECHANIC         GERBERMAN & BURES       01-0440-00    01001     LOC:                    MTR:80114262                                                                                                                                                                                     01-0440-0001001                         1000
01            001290FLASHDL51850712053   1850712053                000000006720000672296000000895 0000000655121714121814          EDERZ121714083509E           A 00000000655      108 E. JACKSON          TOUGH COUNTRY OUTFITTERS01-0450-03    01001     LOC:                    MTR:80114261                                                                                                                                                                                     01-0450-0301001                         1020
01            001320FLASHDL51834030658   1834030658                000000001820000182691000000387 0000000180121714121814          EDERZ121714083427E           A 00000000180      115 N. WASHINGTON       PAINT PERFECTION BY KRUP01-0460-01    01001     LOC:                    MTR:80114260                                                                                                                                                                                     01-0460-0101001                         2000
01            001350FLASHDL51483451286   1483451286                000000008600000008600000001059 0000000834121714121814          EDERZ121714082959R           A 00000000834      117 N. WASHINGTON       FLOWERS ETC & GIFTS INC 01-0470-01    01001     LOC:                    MTR:80114248                                                                                                                                                                                     01-0470-0101001                             
01            001380FLASHDL51850365010   1850365010                000000000010000001787000000200 0000000200121714121814          EDERZ121714083457E           A 00000000000      121 N. WASHINGTON       RUSSELL ABSHIRE         01-0480-02    01001     LOC:                    MTR:80114249                                                                                                                                                                                     01-0480-0201001                         5000
01            001410FLASHDL51852320549   1852320549                000000000870000087656000000296 0000000104121714121814          EDERZ121714083355E           A 10000000078      123 N. WASHINGTON       BRIGGS & VESELKA CO.,PC 01-0490-01    01001     LOC:                    MTR:80114250                                                                                                                                                                                     01-0490-0101001                         2000
01            001440FLASHDL51833039995   1833039995                000000000710000071276000000272 0000000128121714121814          EDERZ121714090348E           A 10000000071      109 N. WASHINGTON       FASHION TRENDZ          01-0500-01    01001     LOC:                    MTR:91879710                                                                                                                                                                                     01-0500-0101001                         4000
01            001470FLASHDL51852339412   1852339412                000000000000000000607000000000 0000000000121714121814          EDERZ121714083355E           I 00000000000      127 E. MONSERATTE       ---IDLE METER---        01-0510-99    01001     LOC:                    MTR:80114245                                                                                                                                                                                     01-0510-9901001                         6000
01            001500FLASHDL51833123216   1833123216                000000001930000193542000000394 0000000189121714121814          EDERZ121714083438E           A 00000000189      107 N. WASHINGTON       ANDREW'S                01-0520-00    01001     LOC:                    MTR:80114247                                                                                                                                                                                     01-0520-0001001                         2100
01            001530FLASHDL51484022360   1484022360                000000023830000023830000002585 0000002339121714121814          EDERZ121714083413R           A 00000002339      105 N. WASHINGTON       JOHN L. RICHARDS DDS    01-0530-00    01001     LOC:                    MTR:80114246                                                                                                                                                                                     01-0530-0001001                             
01            001560FLASHDL51852320993   1852320993                000000000200000020409000000220 0000000180121714121814          EDERZ121714083431E           A 10000000014      125 E. MONSERATTE       RICHARD L. MANSKE       01-0540-00    01001     LOC:                    MTR:80114164                                                                                                                                                                                     01-0540-0001001                         2000
01            001590FLASHDL51850365123   1850365123                000000003720000372005000000575 0000000370121714121814          EDERZ121714083246E           A 00000000370      121 E. MONSERATTE       MANSKE & HAJOVSKY       01-0550-00    01001     LOC:                    MTR:80114165                                                                                                                                                                                     01-0550-0001001                         2000
01            001620FLASHDL51850363256   1850363256                000000004240000424581000000645 0000000411121714121814          EDERZ121714083403E           A 00000000411      115 E. MONSERATTE       NEW BEGINNINGS          01-0560-01    01001     LOC:                    MTR:80114166                                                                                                                                                                                     01-0560-0101001                         1000
01            001680FLASHDL51834030684   1834030684                000000001610000161532000000365 0000000158121714121814          EDERZ121714083430E           A 00000000158      111 E. MONSERATTE       HOSMAN, THOMAS          01-0590-03    01001     LOC:                    MTR:80113544                                                                                                                                                                                     01-0590-0301001                         5000
01            001715FLASHDL51850712021   1850712021                000000001080000108811000000310 0000000100121714121814          EDERZ121714083439E           A 00000000100      107 E. MONSERATTE       MELISSA ROD ENTERPRISES,01-0610-01    01001     LOC:                    MTR:80114161                                                                                                                                                                                     01-0610-0101001                         1000
01            001740FLASHDL51852319630   1852319630                000000001730000173715000000323 0000000077121714121814          EDERZ121714083449E           A 00000000071      103 E. MONSERATTE       R & R PRINTING          01-0620-00    01001     LOC:                    MTR:80114162                                                                                                                                                                                     01-0620-0001001                         2021
01            001770FLASHDL51491034746   1491034746                000000014510000014515000001659 0000001434121714121814          EDERZ121714083424R           A 00000001434      101 E. MONSERATTE       LALA'S HAIR DESIGN      01-0630-00    01001     LOC:                    MTR:49494765                                                                                                                                                                                     01-0630-0001001                             
01            001925FLASHDL51481555354   1481555354                000000040320000040325000004032 0000004032121714121814          EDERZ121714083442R           I 00000004032      107 W. MONSERATTE       ---IDLE METER---        01-9400-99    01001     LOC:                    MTR:80112529                                                                                                                                                                                     01-9400-9901001                             
01            001950FLASHDL51482316614   1482316614                000000008650000008650000001068 0000000865121714121814          EDERZ121714083527R           A 00000000865      120 W. MONSERATTE       TREE HOUSE FURNITURE OUT01-0690-05    01001     LOC:                    MTR:80114298                                                                                                                                                                                     01-0690-0501001                             
01            001955FLASHDL51482904340   1482904340                000000001570000001575000000157 0000000157121714121814          EDERZ121714083439R           I 00000000157      111 W. MONSERATTE       ---IDLE METER---        01-9300-99    01001     LOC:                    MTR:80114016                                                                                                                                                                                     01-9300-9901001                             
01            001980FLASHDL51850062952   1850062952                000000002570000257278000000464 0000000256121714121814          EDERZ121714083506E           A 00000000256      201 W. MONSERATTE       EL CAMPO ART LEAGUE     01-0700-00    01001     LOC:                    MTR:80785530                                                                                                                                                                                     01-0700-0001001                         2000
01            002010FLASHDL51852322608   1852322608                000000001700000170904000000374 0000000114121714121814          EDERZ121714083646E           A 00000000114      202 W. MONSERATTE       RITA'S HAIR RAZORS      01-0710-02    01001     LOC:                    MTR:80112351                                                                                                                                                                                     01-0710-0201001                         1030
01            002040FLASHDL51490068014   1490068014                000000001400000001400000000140 0000000140121714121814          EDERZ121714083408R           I 00000000140      220 W. MONSERATTE       ---IDLE METER---        01-0720-99    01001     LOC:                    MTR:80114171                                                                                                                                                                                     01-0720-9901001                             
01            002070FLASHDL51852311590   1852311590                000000002130000213327000000453 0000000177121714121814          EDERZ121714083525E           A 00000000177      214 W. MONSERATTE       MUSIC VENUE             01-0730-03    01001     LOC:                    MTR:80114377                                                                                                                                                                                     01-0730-0301001                         0020
01            002075FLASHDL71481420056   1481420056                000004872050000487205000511389 0000502227121714121814          EDERZ121714083501R           A 10000483900      302 W. MONSERATTE 2     CITY OF EC/WELL METER   01-0725-00    02002     LOC:                    MTR:70216022                                                                                                                                                                                     01-0725-0002002                             
01            003000FLASHDL51850031203   1850031203                000000001620000162880000000344 0000000141121714121814          EDERZ121714083415E           A 00000000141      301 W. JACKSON          A & S AUTOMOTIVE REPAIR 01-0740-09    01001     LOC:                    MTR:49494784                                                                                                                                                                                     01-0740-0901001                         1020
01            003030FLASHDL51832512933   1832512933                000000020990002099789000002309 0000002045121714121814          EDERZ121714083807E           A 00000002045      402 W. MONSERATTE       PEARL BEER DIST. CO.    01-0750-00    01001     LOC:                    MTR:80114172                                                                                                                                                                                     01-0750-0001001                         0062
01            003120FLASHDL51852357380   1852357380                000000000000000000001000000000 0000000000121714121814          EDERZ121714083600E           I 00000000000      506 W. RAILROAD         ---IDLE METER---        01-0780-99    01001     LOC:                    MTR:80114167                                                                                                                                                                                     01-0780-9901001                         6000
01            003180FLASHDL51484022382   1484022382                000000071150000071150000007307 0000007047121714121814          EDERZ121714083840R           A 00000007047      510 W. RAILROAD         OCHOA SERVICES          01-0800-09    01001     LOC:                    MTR:80113545                                                                                                                                                                                     01-0800-0901001                             
01            003210FLASHDL51833039590   1833039590                000000010410001041707000001247 0000001039121714121814          EDERZ121714083551E           A 00000001039      207 W. FIRST            PENNY PINCHER'S RESALE S01-0810-01    01001     LOC:                    MTR:91879708                                                                                                                                                                                     01-0810-0101001                         2000
01            003240FLASHDL51484220426   1484220426                000000003090000003090000000508 0000000305121714121814          EDERZ121714083539R           A 00000000305      205 W. FIRST            THE HERB SHOP           01-0820-03    01001     LOC:                    MTR:80114168                                                                                                                                                                                     01-0820-0301001                             
01            003270FLASHDL51831937383   1831937383                000000001820000182148000000390 0000000180121714121814          EDERZ121714083529E           A 00000000180      201 W. FIRST            MICHAEL JOHNSON         01-0830-03    01001     LOC:                    MTR:90837418                                                                                                                                                                                     01-0830-0301001                         3010
01            003280FLASHDL51481202774   1481202774                000000031320000031320000003337 0000003093121714121814          EDERZ121714083545R           A 00000003093      212 ALAMO               YOUNG, LAWRENCE M.      01-0840-00    01001     LOC:                    MTR:80112603                                                                                                                                                                                     01-0840-0001001                             
01            003310FLASHDL51482429202   1482429202                000000000000000000000000000200 0000000200121714121814          EDERZ121714083521R           A 00000000000      224 W. FIRST            CITY OF EC / ALAMO PARK 01-9100-00    01002     LOC:                    MTR:49494775                                                                                                                                                                                     01-9100-0001002                             
01            003311FLASHDL51832498063   1832498063                000000020600002060365000002262 0000002060121714121814          EDERZ121714083606E           A 00000002060      224 W. FIRST            CITY OF EC / ALAMO PARK 01-9100-00    01003     LOC:                    MTR:80165385                                                                                                                                                                                     01-9100-0001003                         6000
01            003315FLASHDL51834562315   1834562315                000000025270002527211000002733 0000002476121714121814        ##EDERZ121714083602E           A 00000002476      226 W. FIRST            CITY OF EC/ ALAMO PARK- 01-9200-00    01001     LOC:MTR BY PAVILLION-FIRMTR:80114012                                                                                                                                                                                     01-9200-0001001                         0020
01            003325FLASHDL61450183426                             0                    000007302 0000007070121714121814        ##  EUZ                        A  0000007070      224 W. FIRST            CITY OF EC / ALAMO PARK 01-9100-00    01001     LOC:MTR- MIDDLE OF BLK- MTR:60419549                                                                                                                                                                                     01-9100-0001001                             
01            003330FLASHDL51482668388   1482668388                000000077110000077110000007922 0000007668121714121814          EDERZ121714083523R           A 00000007668      123 W. FIRST            TEXANA CENTER           01-0850-01    01001     LOC:                    MTR:80114176                                                                                                                                                                                     01-0850-0101001                             
01            003331FLASHDL51852258105   1852258105                000000002270000227764000000429 0000000157121714121814          EDERZ121714083501E           A 00000000157      123 W. FIRST            TEXANA CENTER           01-0850-01    01002     LOC:                    MTR:80112601                                                                                                                                                                                     01-0850-0101002                         6000
01            003360FLASHDL51850704374   1850704374                000000011120001112870000001255 0000000991121714121814          EDERZ121714083632E           A 00000000991      113 W. FIRST            COVINGTON CREDIT        01-0860-02    01001     LOC:                    MTR:49494783                                                                                                                                                                                     01-0860-0201001                         0050
01            003390FLASHDL51484022072   1484022072                000000010190000010195000001231 0000001014121714121814          EDERZ121714083444R           A 00000001014      105 W. FIRST            RAYMOND L. VIKTORIN, JR 01-0870-02    01001     LOC:                    MTR:80112350                                                                                                                                                                                     01-0870-0201001                             
01            003420FLASHDL51850195927   1850195927                000000006280000628008000000854 0000000561121714121814          EDERZ121714083612E           A 00000000561      124 S. MECHANIC         USPS EL CAMPO 48-2780   01-0880-00    01001     LOC:                    MTR:49494786                                                                                                                                                                                     01-0880-0001001                         1000
01            003450FLASHDL51484022700   1484022700                000000006600000006600000000853 0000000644121714121814          EDERZ121714083648R           A 00000000644      101 W. FIRST A          POLASEK CONSTRUCTION    01-0890-00    01001     LOC:                    MTR:49494785                                                                                                                                                                                     01-0890-0001001                             
01            003455FLASHDL51482316612   1482316612                000000008710000008715000001062 0000000848121714121814          EDERZ121714083442R           A 00000000848      101 W. FIRST B          MARY R. WILLIAMSON      01-0895-01    01001     LOC:                    MTR:49494778                                                                                                                                                                                     01-0895-0101001                             
01            003480FLASHDL51483715662   1483715662                000000018490000018490000002057 0000001829121714121814          EDERZ121714083527R           A 00000001829      104 E. FIRST            ABILITY BEYOND DISABILIT01-0900-02    01001     LOC:                    MTR:80114177                                                                                                                                                                                     01-0900-0201001                             
01            003510FLASHDL51852307177   1852307177                000000012060001206444000001422 0000001022121714121814          EDERZ121714083533E           A 00000000821      137 S. MECHANIC         GREEK BROS OYSTER BAR & 01-0910-00    01001     LOC:                    MTR:80114178                                                                                                                                                                                     01-0910-0001001                         0061
01            003540FLASHDL51852320557   1852320557                000000004100000410451000000598 0000000265121714121814          EDERZ121714083525E           A 00000000265      129 S. MECHANIC         GREEK BROS OYSTER BAR & 01-0920-00    01001     LOC:                    MTR:80114173                                                                                                                                                                                     01-0920-0001001                         0051
01            003550FLASHDL51852335131   1852335131                000000000160000016527000000216 0000000184121714121814          EDERZ121714083556E           A 10000000011      201 S. MECHANIC         COASTAL TITLE COMPANY   01-0905-01    01001     LOC:                    MTR:80112290                                                                                                                                                                                     01-0905-0101001                         2010
01            003570FLASHDL51483866652   1483866652                000000000320000000320000000232 0000000168121714121814          EDERZ121714083352R           A 10000000031      123 S. MECHANIC         GOYNES & CO             01-0930-05    01001     LOC:                    MTR:80114174                                                                                                                                                                                     01-0930-0501001                             
01            003600FLASHDL51482266452   1482266452                000000002280000002280000000428 0000000225121714121814          EDERZ121714082817R           A 00000000225      121 S. MECHANIC         CEDAR CHEST QUILT SHOPPE01-0940-02    01001     LOC:                    MTR:80113548                                                                                                                                                                                     01-0940-0201001                             
01            003630FLASHDL51483455010   1483455010                000000009620000009620000001161 0000000953121714121814          EDERZ121714083530R           A 00000000953      119 S. MECHANIC         WHITE'S HOME & AUTO     01-0950-00    01001     LOC:                    MTR:80165342                                                                                                                                                                                     01-0950-0001001                             
01            003690FLASHDL51834769517   1834769517                000000003590000359850000000587 0000000358121714121814          EDERZ121714083507E           A 00000000358      109 S. MECHANIC         HERITAGE CENTER         01-0970-03    01001     LOC:                    MTR:80114175                                                                                                                                                                                     01-0970-0301001                         3000
01            003720FLASHDL51852320537   1852320537                000000001080000108247000000309 0000000091121714121814          EDERZ121714083501E           A 00000000070      107 S. MECHANIC         KATHRYN BURROW          01-0980-00    01001     LOC:                    MTR:80114211                                                                                                                                                                                     01-0980-0001001                         0061
01            003750FLASHDL51484022938   1484022938                000000003350000003350000000536 0000000331121714121814          EDERZ121714083436R           A 00000000331      101 S. MECHANIC         HERITAGE CENTER         01-0990-00    01001     LOC:                    MTR:49494741                                                                                                                                                                                     01-0990-0001001                             
01            003780FLASHDL51470029134   1470029134                000000029650000029655000003159 0000002942121714121814          EDERZ121714083446R           A 00000002942      111 S. MECHANIC         WHITE'S HOME & AUTO     01-1000-00    01001     LOC:                    MTR:80113543                                                                                                                                                                                     01-1000-0001001                             
01            003870FLASHDL51483707368   1483707368                000000105400000105400000010846 0000010515121714121814          EDERZ121714083448R           A 00000010515      110 W. RAILROAD         MULDOONS SALON          01-1030-03    01001     LOC:                    MTR:80114210                                                                                                                                                                                     01-1030-0301001                             
01            003875FLASHDL51834645071   1834645071                000000007750000775813000000974 0000000773121714121814          EDERZ121714083445E           A 00000000773      110 W. RAILROAD         MULDOONS SALON          01-1030-03    01002     LOC:                    MTR:93015503                                                                                                                                                                                     01-1030-0301002                         5020
01            003930FLASHDL51852320327   1852320327                000000000650000065006000000269 0000000131121714121814          EDERZ121714083449E           A 10000000047      114 E. RAILROAD         MAYRA'S SALON DE BELLEZA01-1050-00    01001     LOC:                    MTR:80114213                                                                                                                                                                                     01-1050-0001001                         2020
01            003960FLASHDL51852322543   1852322543                000000000780000078177000000293 0000000107121714121814        SIEDERZ121714083355E           A 10000000068      114 S. WASHINGTON       RAUL TABAREZ            01-1060-02    01001     LOC:SIDE OF YARD        MTR:80114212                                                                                                                                                                                     01-1060-0201001                         2000
01            004140FLASHDL51852331881   1852331881                000000000910000091048000000293 0000000107121714121814          EDERZ121714083531E           A 10000000062      107 E. FIRST            TORTILLERIA CRYSTAL     01-1120-02    01001     LOC:                    MTR:80114188                                                                                                                                                                                     01-1120-0201001                         2020
01            004170FLASHDL51481367268   1481367268                000000031160000031165000003314 0000003090121714121814          EDERZ121714083404R           A 00000003090      138 E. FIRST            TREE HOUSE              01-1130-01    01001     LOC:                    MTR:80114189                                                                                                                                                                                     01-1130-0101001                             
01            004200FLASHDL51834137096   1834137096                000000019480001948858000002162 0000001940121714121814          EDERZ121714083531E           A 00000001940      134 S. WASHINGTON       RINCON NORTENO          01-1140-06    01001     LOC:                    MTR:80112349                                                                                                                                                                                     01-1140-0601001                         3040
01            004230FLASHDL51832630084   1832630084                000000004260000426028000000622 0000000406121714121814          EDERZ121714083446E           A 00000000406      109 S. WASHINGTON       LEON'S HEATING & AIR CON01-1150-01    01001     LOC:                    MTR:49494718                                                                                                                                                                                     01-1150-0101001                         0110
01            004260FLASHDL51850189385   1850189385                000000014170001417395000001640 0000001358121714121814          EDERZ121714082815E           A 00000001358      206 E. RAILROAD         NINE POINT GRAIN        01-1160-01    01001     LOC:                    MTR:80787850                                                                                                                                                                                     01-1160-0101001                         1020
01            004290FLASHDL61483707634   1483707634                000000062300000006230000006438 0000006195121714121814          EDERZ121714082837R           A 00000006195      208 E. MONSERATTE       NINE-POINT GRAIN INC.   01-1170-00    01001     LOC:                    MTR:60419538                                                                                                                                                                                     01-1170-0001001                             
01            004310FLASHDL51484021442   1484021442                000000011440000011440000001344 0000001142121714121814          EDERZ121714085820R           A 00000001142      407 E. FIRST            RICE FARMERS CO-OP      01-1175-00    01001     LOC:                    MTR:80165425                                                                                                                                                                                     01-1175-0001001                             
01            004320FLASHDL51481369834   1481369834                000000008420000008425000001026 0000000799121714121814          EDERZ121714082806R           A 00000000799      409 E. FIRST            RICE FARMERS COOP, INC. 01-1180-00    01001     LOC:                    MTR:80165428                                                                                                                                                                                     01-1180-0001001                             
01            004410FLASHDL61482658702   1482658702                000000012400000001240000001442 0000001240121714121814          EDERZ121714083229R           A 00000001240      515 E. FIRST .1         RICE FARMERS CO-OP      01-1210-01    01001     LOC:                    MTR:60419138                                                                                                                                                                                     01-1210-0101001                             
01            004440FLASHDL51484743208   1484743208                000000002370000002370000000437 0000000231121714121814          EDERZ121714082819R           A 00000000231      109 HIGBEE              PAK PETROLEUM MKT, INC. 01-1220-03    01001     LOC:                    MTR:80112793                                                                                                                                                                                     01-1220-0301001                             
01            004500FLASHDL51852294919   1852294919                000000000000000000001000000200 0000000200121714121814          EDERZ121714082839E           A 00000000000      610 E. MONSERATTE       CITY OF EC/SERVICE CENTE01-1240-01    01001     LOC:                    MTR:80114623                                                                                                                                                                                     01-1240-0101001                         6000
01            004501FLASHDL51834406226   1834406226                000000001920000192492000000403 0000000192121714121814          EDERZ121714134336E           A 00000000192      610 E. MONSERATTE       CITY OF EC/SERVICE CENTE01-1240-01    01002     LOC:                    MTR:92745234                                                                                                                                                                                     01-1240-0101002                         6000
01            004520FLASHDL61484019240   1484019240                000000083200000008320000008334 0000007934121714121814          EDERZ121714082806R           A 00000007930      618 E. MONSERATTE       CITY OF EC / SERVICE CEN01-1245-00    01001     LOC:                    MTR:60728019                                                                                                                                                                                     01-1245-0001001                             
01            004521FLASHDL61490534386                             0                    000008312 0000007940121714121814            EUZ                        A  0000007940      618 E. MONSERATTE       CITY OF EC / SERVICE CEN01-1245-00    01002     LOC:                    MTR:60419562                                                                                                                                                                                     01-1245-0001002                             
01            004530FLASHDL51852320511   1852320511                000000000000000000001000000200 0000000200121714121814          EDERZ121714082813E           A 00000000000      605 E. MONSERATTE       EL CAMPO FEED & MILLING 01-1250-00    01001     LOC:                    MTR:80114185                                                                                                                                                                                     01-1250-0001001                         6000
01            004560FLASHDL51850712333   1850712333                000000000420000042175000000241 0000000159121714121814          EDERZ121714082837E           A 10000000037      101 PIERCE              EL CAMPO ENG. & COMPRESS01-1260-00    01001     LOC:                    MTR:80114186                                                                                                                                                                                     01-1260-0001001                         2000
01            004590FLASHDL51850023531   1850023531                000000002400000240712000000438 0000000222121714121814          EDERZ121714082852E           A 00000000222      510 E. MONSERATTE       RICE FARMER'S COOP DRIER01-1270-00    01001     LOC:                    MTR:49494720                                                                                                                                                                                     01-1270-0001001                         1010
01            004620FLASHDL51483704744   1483704744                000000073870000073875000007552 0000007255121714121814          EDERZ121714082758R           A 00000007255      106 MARKET              RICE FARMERS COOP, INC. 01-1280-00    01001     LOC:                    MTR:80114187                                                                                                                                                                                     01-1280-0001001                             
01            004710FLASHDL51852366807   1852366807                000000000880000088161000000287 0000000113121714121814          EDERZ121714082809E           A 10000000062      102 MAIN                MARC WELFEL             01-1310-01    01001     LOC:                    MTR:80114184                                                                                                                                                                                     01-1310-0101001                         0061
02            000120FLASHDL51481341720   1481341720                000000012710000012710000001462 0000001234121714121814          EDERZ121714083826R           A 00000001234      111 AVE. D D            TRISTIAN, MARY          02-0040-01    01001     LOC:                    MTR:80112602                                                                                                                                                                                     02-0040-0101001                             
02            000150FLASHDL51852335124   1852335124                000000000650000065489000000271 0000000129121714121814          EDERZ121714083856E           A 10000000049      803 W. JACKSON          GARY TUPA PLBG. CONTRACT02-0050-00    01001     LOC:                    MTR:80114183                                                                                                                                                                                     02-0050-0001001                         1000
02            000240FLASHDL51852320312   1852320312                000000000640000064727000000279 0000000121121714121814          EDERZ121714083800E           A 10000000039      707 W. MONSERATTE       MARTINEZ, ELAINEE R     02-0080-00    01001     LOC:                    MTR:80112925                                                                                                                                                                                     02-0080-0001001                         1010
02            000270FLASHDL51490534500   1490534500                000000005410000005410000000541 0000000541121714121814          EDERZ121714083731R           I 00000000541      611 W. MONSERATTE       ---IDLE METER---        02-0090-99    01001     LOC:                    MTR:80112926                                                                                                                                                                                     02-0090-9901001                             
02            000300FLASHDL51470205832   1470205832                000000015710000015715000001571 0000001571121714121814          EDERZ121714083438R           I 00000001571      609 W. MONSERATTE       ---IDLE METER---        02-0100-99    01001     LOC:                    MTR:80702546                                                                                                                                                                                     02-0100-9901001                             
02            000330FLASHDL51852331935   1852331935                000000000050000005988000000213 0000000187121714121814          EDERZ121714083757E           A 00000000000      525 W. MONSERATTE       JUAREZ, JOSE A          02-0110-13    01001     LOC:                    MTR:80784592                                                                                                                                                                                     02-0110-1301001                         5000
02            000360FLASHDL51852331929   1852331929                000000000110000011952000000217 0000000183121714121814          EDERZ121714083742E           A 10000000011      519 W. MONSERATTE       SALAZAR, SANDY M        02-0120-06    01001     LOC:                    MTR:80114378                                                                                                                                                                                     02-0120-0601001                         5000
02            000390FLASHDL51852366800   1852366800                000000001030000103822000000326 0000000085121714121814          EDERZ121714083813E           A 00000000085      517 W. MONSERATTE       ARANDA, RITA V          02-0130-02    01001     LOC:                    MTR:80112930                                                                                                                                                                                     02-0130-0201001                         1020
02            000400FLASHDL51483002100   1483002100                000000010270000010275000001252 0000001024121714121814          EDERZ121714102042R           A 00000001024      723 W. MONSERATTE       ROBINSON, T.L.          02-0135-00    01001     LOC:                    MTR:89393636                                                                                                                                                                                     02-0135-0001001                             
02            000450FLASHDL51852363169   1852363169                000000001240000124835000000315 0000000085121714121814          EDERZ121714083556E           A 00000000075      409 W. MONSERATTE       ZARAVIA, PABLO R        02-0150-22    01001     LOC:                    MTR:80112439                                                                                                                                                                                     02-0150-2201001                         0010
02            000480FLASHDL51483704604   1483704604                000000088580000088580000009058 0000008725121714121814          EDERZ121714083642R           A 00000008725      311 W. RAILROAD         GARZA, ROBERT R         02-0160-00    01001     LOC:                    MTR:80112440                                                                                                                                                                                     02-0160-0001001                             
02            000490FLASHDL51832498398   1832498398                000000009090000909780000001109 0000000891121714121814          EDERZ121714083556E           A 00000000891      310 W. FIRST            MANDUJANO, SILVESTRE    02-0170-07    01001     LOC:                    MTR:80112442                                                                                                                                                                                     02-0170-0701001                         0000
02            000510FLASHDL51832498071   1832498071                000000012200001220840000001435 0000001194121714121814          EDERZ121714083651E           A 00000001194      312 W. FIRST            CASTILLO, GREGORIO      02-0180-05    01001     LOC:                    MTR:80112444                                                                                                                                                                                     02-0180-0501001                         0000
02            000540FLASHDL51850361416   1850361416                000000008220000822904000001029 0000000782121714121814          EDERZ121714083459E           A 00000000782      102 OSCAR               R. A. CHOMOUT           02-0190-00    01001     LOC:                    MTR:80114182                                                                                                                                                                                     02-0190-0001001                         0030
02            000560FLASHDL51850350603   1850350603                000000005070000507987000000724 0000000474121714121814          EDERZ121714152612E           A 00000000474      108 OSCAR               FALCON, DANIEL          02-0210-01    01001     LOC:                    MTR:80785463                                                                                                                                                                                     02-0210-0101001                         2030
02            000570FLASHDL51852332295   1852332295                000000000730000073657000000272 0000000128121714121814          EDERZ121714083701E           A 10000000048      309 W. RAILROAD         CASTORENA, JAIME        02-0200-00    01001     LOC:                    MTR:80112441                                                                                                                                                                                     02-0200-0001001                         2020
02            000630FLASHDL51850712778   1850712778                000000000000000000001000000000 0000000000121714121814          EDERZ121714083654E           I 00000000000      202 OSCAR               ---IDLE METER---        02-0220-99    01001     LOC:                    MTR:80114179                                                                                                                                                                                     02-0220-9901001                         6000
02            000660FLASHDL51484267362   1484267362                000000013340000013340000001538 0000001291121714121814          EDERZ121714083547R           A 00000001291      223 W. FIRST            BALDERAS, VERONICA      02-0230-00    01001     LOC:                    MTR:80165406                                                                                                                                                                                     02-0230-0001001                             
02            000720FLASHDL51852320398   1852320398                000000000350000035676000000238 0000000162121714121814          EDERZ121714083557E           A 10000000027      213 W. FIRST            MEDRANO, GONZALO        02-0250-00    01001     LOC:                    MTR:80165407                                                                                                                                                                                     02-0250-0001001                         0000
02            000750FLASHDL51483455254   1483455254                000000021190000021195000002326 0000002091121714121814          EDERZ121714083534R           A 00000002091      209 W. FIRST            VERA, GLORIA S          02-0260-02    01001     LOC:                    MTR:80112915                                                                                                                                                                                     02-0260-0201001                             
02            000780FLASHDL51852348918   1852348918                000000000990000099197000000099 0000000099121714121814          EDERZ121714083552E           I 00000000099      307 W. FIRST            ---IDLE METER---        02-0270-99    01001     LOC:                    MTR:80112443                                                                                                                                                                                     02-0270-9901001                         6000
02            000785FLASHDL51470048066   1470048066                000000000050000000050000000005 0000000005121714121814          EDERZ121714083546R           I 00000000005      402 W. FIRST            ---IDLE METER---        02-0275-99    01001     LOC:                    MTR:80165409                                                                                                                                                                                     02-0275-9901001                             
02            000800FLASHDL51483007816   1483007816                000000037430000037430000003950 0000003695121714121814          EDERZ121714083707R           A 00000003695      413 W. FIRST            SHORTER, SHIRLEY J      02-0295-00    01001     LOC:                    MTR:89393639                                                                                                                                                                                     02-0295-0001001                             
02            000840FLASHDL51483704602   1483704602                000000041930000041930000004416 0000004160121714121814          EDERZ121714083602R           A 00000004160      201 LINCOLN             TORRES, CATALINA        02-0290-01    01001     LOC:                    MTR:80165411                                                                                                                                                                                     02-0290-0101001                             
02            000860FLASHDL51484277588   1484277588                000000027970000027970000003008 0000002765121714121814          EDERZ121714083603R           A 00000002765      401 W. FIRST            PALMER, PATRICIA M      02-0300-01    01001     LOC:                    MTR:80165410                                                                                                                                                                                     02-0300-0101001                             
02            000870FLASHDL51484021736   1484021736                000000007140000007140000000928 0000000712121714121814          EDERZ121714083705R           A 00000000712      201 BELLMAN             SANCHEZ, ESMERALDA      02-0310-10    01001     LOC:                    MTR:80787897                                                                                                                                                                                     02-0310-1001001                             
02            000890FLASHDL51484010772   1484010772                000000099710000099710000010155 0000009879121714121814          EDERZ121714083716R           A 00000009879      205 BELLMAN             SANCHEZ, VIRGIE         02-0330-08    01001     LOC:                    MTR:80112393                                                                                                                                                                                     02-0330-0801001                             
02            000900FLASHDL51852323001   1852323001                000000001310000131748000000335 0000000090121714121814          EDERZ121714084718E           A 00000000090      505 W. FIRST            GARCIA-REYES, VIRGILIO  02-0340-21    01001     LOC:                    MTR:80112394                                                                                                                                                                                     02-0340-2101001                         0000
02            000930FLASHDL51852313465   1852313465                000000000550000055157000000264 0000000136121714121814          EDERZ121714083703E           A 10000000030      503 W. FIRST            GARCIA, MARY T.         02-0350-00    01001     LOC:                    MTR:80112395                                                                                                                                                                                     02-0350-0001001                         0110
02            000960FLASHDL51852313296   1852313296                000000000000000000001000000000 0000000000121714121814          EDERZ121714082826E           I 00000000000      200 TEGNER              ---IDLE METER---        02-0360-99    01001     LOC:                    MTR:80112396                                                                                                                                                                                     02-0360-9901001                         6000
02            000990FLASHDL51852320769   1852320769                000000004430000443146000000631 0000000305121714121814          EDERZ121714083716E           A 00000000305      205 TEGNER              RAMIREZ, MARY           02-0370-00    01001     LOC:                    MTR:80113633                                                                                                                                                                                     02-0370-0001001                         0062
02            001010FLASHDL51482432896   1482432896                000000024120000024120000002628 0000002398121714121814          EDERZ121714083906R           A 00000002398      708 W. SECOND           EDWARDS, CLIFTON        02-0510-04    01001     LOC:                    MTR:80114023                                                                                                                                                                                     02-0510-0401001                             
02            001020FLASHDL51470036266   1470036266                000000001830000001830000000183 0000000183121714121814          EDERZ121714083556R           I 00000000183      207 TEGNER              ---IDLE METER---        02-0380-99    01001     LOC:                    MTR:80113634                                                                                                                                                                                     02-0380-9901001                             
02            001050FLASHDL51852322619   1852322619                000000000600000060065000000259 0000000141121714121814          EDERZ121714083747E           A 10000000041      410 W. SECOND           BELL, ELLA MAE          02-0390-00    01001     LOC:                    MTR:80113635                                                                                                                                                                                     02-0390-0001001                         0010
02            001080FLASHDL51852322622   1852322622                000000002910000291715000000491 0000000205121714121814          EDERZ121714083725E           A 00000000205      502 W. SECOND           GARCIA, LILLIAN R       02-0400-02    01001     LOC:                    MTR:80113636                                                                                                                                                                                     02-0400-0201001                         0150
02            001110FLASHDL51850266500   1850266500                000000000270000027928000000222 0000000178121714121814          EDERZ121714084430E           A 10000000020      504 W. SECOND           GUADALUPE LOREDO        02-0410-02    01001     LOC:                    MTR:80113637                                                                                                                                                                                     02-0410-0201001                         4000
02            001170FLASHDL51481554116   1481554116                000000025120000025120000002712 0000002512121714121814          EDERZ121714083617R           A 00000002512      506 W. SECOND           SALDANA, JANIE          02-0430-01    01001     LOC:                    MTR:80113638                                                                                                                                                                                     02-0430-0101001                             
02            001180FLASHDL51833084498   1833084498                000000001010000101126000000301 0000000099121714121814          EDERZ121714083913E           A 00000000098      507 W. SECOND           SPANISH E.C.- TX CONGREG02-0435-00    01001     LOC:                    MTR:60771930                                                                                                                                                                                     02-0435-0001001                         1000
02            001230FLASHDL51470037342   1470037342                000000078430000078435000008068 0000007776121714121814          EDERZ121714083640R           A 00000007776      606 W. SECOND           ALLEN, LETISHA R        02-0450-06    01001     LOC:                    MTR:80112761                                                                                                                                                                                     02-0450-0601001                             
02            001260FLASHDL51850712095   1850712095                000000003780000378235000000575 0000000338121714121814          EDERZ121714083719E           A 00000000338      608 W. SECOND           HEBERT, TAMMY           02-0460-00    01001     LOC:                    MTR:80113776                                                                                                                                                                                     02-0460-0001001                         0020
02            001290FLASHDL51470045160   1470045160                000000015600000015605000001765 0000001551121714121814          EDERZ121714084722R           A 00000001551      610 W. SECOND           HINOJOSA, JUAN          02-0470-00    01001     LOC:                    MTR:80112500                                                                                                                                                                                     02-0470-0001001                             
02            001320FLASHDL51852319953   1852319953                000000000530000053343000000265 0000000135121714121814          EDERZ121714084601E           A 10000000034      107 VASA                GARCIA, NICHOLAS J      02-0480-03    01001     LOC:                    MTR:80112501                                                                                                                                                                                     02-0480-0301001                         1010
02            001350FLASHDL51484022264   1484022264                000000034370000034370000003552 0000003233121714121814          EDERZ121714083911R           A 00000003233      105 VASA                FARROW, CEDRIC          02-0490-00    01001     LOC:                    MTR:80112502                                                                                                                                                                                     02-0490-0001001                             
02            001385FLASHDL51850164650   1850164650                000000003180000318334000000524 0000000290121714121814          EDERZ121714083904E           A 00000000290      706 W. SECOND           PENN, FANNIE            02-0520-00    01001     LOC:                    MTR:93645277                                                                                                                                                                                     02-0520-0001001                         0000
02            001390FLASHDL51484273930   1484273930                000000185240000185240000018743 0000018501121714121814          EDERZ121714083651R           A 00000018501      720 W. SECOND           CITY OF EC / WILLIE BELL02-9000-00    01001     LOC:                    MTR:49574638                                                                                                                                                                                     02-9000-0001001                             
02            001615FLASHDL51834632416   1834632416                000000038310003831774000003968 0000003653121714121814          EDERZ121714083908E           A 00000003653      701 NELSON              ROSILES, ANTHONY A      02-0515-00    01001     LOC:                    MTR:93015508                                                                                                                                                                                     02-0515-0001001                         0030
02            001620FLASHDL51850165870   1850165870                000000003080000308268000000510 0000000277121714121814          EDERZ121714083659E           A 00000000277      705 NELSON              REBECTOR, RILEY L       02-0525-00    01001     LOC:                    MTR:93645274                                                                                                                                                                                     02-0525-0001001                         0010
02            001650FLASHDL51490534754   1490534754                000000060660000060665000006258 0000006037121714121814          EDERZ121714083628R           A 00000006037      706 NELSON              PEREZ, SILVIA           02-0590-12    01001     LOC:                    MTR:80785337                                                                                                                                                                                     02-0590-1201001                             
02            001710FLASHDL51850581169   1850581169                000000007870000787121000000984 0000000725121714121814          EDERZ121714083705E           A 00000000725      701 W. FIRST            LAWTON, ERNEST          02-0610-00    01001     LOC:                    MTR:80112762                                                                                                                                                                                     02-0610-0001001                         0050
02            001860FLASHDL51852346100   1852346100                000000000000000000000000000202 0000000198121714121814          EDERZ121714083816E           A 00000000000      503 W. SECOND           RUIZ UPHOLSTERY         02-0650-00    01001     LOC:                    MTR:80114304                                                                                                                                                                                     02-0650-0001001                         6000
02            001890FLASHDL51480543596   1480543596                000000012760000012760000001480 0000001252121714121814          EDERZ121714083907R           A 00000001252      307 TEGNER              MERLOS, MARY            02-0660-00    01001     LOC:                    MTR:80165442                                                                                                                                                                                     02-0660-0001001                             
02            001950FLASHDL51470050440   1470050440                000000016880000016885000001899 0000001668121714121814          EDERZ121714083714R           A 00000001668      402 TEGNER              CALLIS, ROBERTA         02-0680-00    01001     LOC:                    MTR:80165443                                                                                                                                                                                     02-0680-0001001                             
02            001980FLASHDL51852323006   1852323006                000000000840000084987000000282 0000000118121714121814          EDERZ121714084553E           A 10000000052      512 TEGNER              ST. ROBERT BELLARMINE'S 02-0690-00    01001     LOC:                    MTR:80787967                                                                                                                                                                                     02-0690-0001001                         0021
02            001981FLASHDL51850033505   1850033505                000000005500000550822000000780 0000000550121714121814          EDERZ121714083911E           A 00000000550      512 TEGNER              ST. ROBERT BELLARMINE'S 02-0690-00    01002     LOC:                    MTR:49574642                                                                                                                                                                                     02-0690-0001002                         6000
02            002010FLASHDL51852337197   1852337197                000000000090000009396000000239 0000000161121714121814          EDERZ121714084530E           A 00000000000      505 W. FIFTH            GONZALEZ, INEZ          02-0700-00    01001     LOC:                    MTR:80165444                                                                                                                                                                                     02-0700-0001001                         5000
02            002040FLASHDL61470185676   1470185676                000000061200000006120000006328 0000006055121714121814          EDERZ121714084524R           A 00000006055      516 TEGNER              ST. ROBERT BELLARMINE PA02-0710-00    01001     LOC:                    MTR:60419125                                                                                                                                                                                     02-0710-0001001                             
02            002100FLASHDL51470057742   1470057742                000000015090000015095000001710 0000001464121714121814          EDERZ121714083934R           A 00000001464      403 W. FIFTH            FRAZIER, BYRON          02-0730-00    01001     LOC:                    MTR:80165445                                                                                                                                                                                     02-0730-0001001                             
02            002130FLASHDL51852321001   1852321001                000000000830000083435000000285 0000000115121714121814          EDERZ121714084605E           A 10000000053      510 LINCOLN             SHIMEK, DENNIS R.       02-0740-00    01001     LOC:                    MTR:80165447                                                                                                                                                                                     02-0740-0001001                         0000
02            002160FLASHDL51484764236   1484764236                000000036780000036780000003881 0000003631121714121814          EDERZ121714084542R           A 00000003631      401 W. FIFTH            ACUNA, STEPHEN          02-0750-00    01001     LOC:                    MTR:80165446                                                                                                                                                                                     02-0750-0001001                             
02            002190FLASHDL51470044454   1470044454                000000055200000055205000005699 0000005423121714121814          EDERZ121714083947R           A 00000005423      605 LINCOLN             L. L. WAGNER            02-0760-00    01001     LOC:                    MTR:80114180                                                                                                                                                                                     02-0760-0001001                             
02            002310FLASHDL51852359207   1852359207                000000001420000142756000000339 0000000095121714121814          EDERZ121714084550E           A 00000000095      511 LINCOLN 1/2         MARTINEZ, ARMANDO       02-0800-01    01001     LOC:                    MTR:80165370                                                                                                                                                                                     02-0800-0101001                         0010
02            002340FLASHDL51850712912   1850712912                000000003810000381582000000610 0000000342121714121814          EDERZ121714084606E           A 00000000342      503 LINCOLN             LONGORIA, ERNEST        02-0810-00    01001     LOC:                    MTR:80165371                                                                                                                                                                                     02-0810-0001001                         1000
02            002370FLASHDL51850032085   1850032085                000000010920001092875000001296 0000001052121714121814          EDERZ121714084606E           A 00000001052      311 W. FOURTH           NUNEZ, LOUIS            02-0820-00    01001     LOC:                    MTR:80165372                                                                                                                                                                                     02-0820-0001001                         2010
02            002380FLASHDL51850043793   1850043793                000000002830000283954000000470 0000000252121714121814          EDERZ121714084624E           A 00000000252      405 LINCOLN             ARGUELLES, ALEJANDRO    02-0830-06    01001     LOC:                    MTR:80787484                                                                                                                                                                                     02-0830-0601001                         0010
02            002400FLASHDL51832498202   1832498202                000000030380003038074000003248 0000002953121714121814          EDERZ121714084555E           A 00000002953      312 W. FOURTH           WASHINGTON, LAURA HERRIN02-0840-00    01001     LOC:                    MTR:80165373                                                                                                                                                                                     02-0840-0001001                         0030
02            002430FLASHDL51850215719   1850215719                000000002720000272452000000474 0000000255121714121814          EDERZ121714084602E           A 00000000255      505 LINCOLN             FUENTES, ROSA LINDA     02-0850-05    01001     LOC:                    MTR:80785318                                                                                                                                                                                     02-0850-0501001                         1000
02            002460FLASHDL51484743066   1484743066                000000062820000062820000006483 0000006263121714121814          EDERZ121714084550R           A 00000006263      507 LINCOLN             MCGLAUN, OPAL SHEPPERD  02-0860-01    01001     LOC:                    MTR:80785747                                                                                                                                                                                     02-0860-0101001                             
02            002490FLASHDL51491360264   1491360264                000000081320000081325000008290 0000008036121714121814          EDERZ121714083923R           A 00000008036      508 LINCOLN             CEASAR, BRAXTON D       02-0870-14    01001     LOC:                    MTR:80112714                                                                                                                                                                                     02-0870-1401001                             
02            002520FLASHDL51471349116   1471349116                000000109800000109805000010980 0000010980121714121814          EDERZ121714083902R           I 00000010980      505 TEGNER              ---IDLE METER---        02-0880-99    01001     LOC:                    MTR:80112917                                                                                                                                                                                     02-0880-9901001                             
02            002550FLASHDL51484765620   1484765620                000000000310000000315000000231 0000000169121714121814          EDERZ121714083822R           A 10000000031      506 LINCOLN             ROADES, PAUL N.         02-0890-00    01001     LOC:                    MTR:80112916                                                                                                                                                                                     02-0890-0001001                             
02            002580FLASHDL51470043032   1470043032                000000032740000032745000003474 0000003238121714121814          EDERZ121714083622R           A 00000003238      503 TEGNER              EARLS, JOYCE J          02-0900-01    01001     LOC:                    MTR:80114206                                                                                                                                                                                     02-0900-0101001                             
02            002610FLASHDL51852359093   1852359093                000000000270000027311000000228 0000000172121714121814          EDERZ121714083710E           A 10000000017      501 TEGNER              HILL, YSABEL            02-0910-04    01001     LOC:                    MTR:80112914                                                                                                                                                                                     02-0910-0401001                         0000
02            002640FLASHDL51852347378   1852347378                000000000650000065710000000264 0000000136121714121814          EDERZ121714084602E           A 10000000046      502 LINCOLN             HERNANDEZ, JOE, JR      02-0920-04    01001     LOC:                    MTR:80165375                                                                                                                                                                                     02-0920-0401001                         3000
02            002670FLASHDL51834564298   1834564298                000000016700001670579000001868 0000001606121714121814          EDERZ121714084637E           A 00000001606      408 W. FOURTH           HERNANDEZ, FELIX        02-0930-00    01001     LOC:                    MTR:80112361                                                                                                                                                                                     02-0930-0001001                         0060
02            002700FLASHDL51852348524   1852348524                000000000220000022225000000241 0000000159121714121814          EDERZ121714084628E           A 00000000000      402 W. FOURTH           HURTADO, JR, RAUL       02-0940-10    01001     LOC:                    MTR:80112662                                                                                                                                                                                     02-0940-1001001                         5010
02            002730FLASHDL51482399142   1482399142                000000031270000031275000003332 0000003101121714121814          EDERZ121714083715R           A 00000003101      408 LINCOLN             RODRIGUEZ, JOSE         02-0950-01    01001     LOC:                    MTR:80112913                                                                                                                                                                                     02-0950-0101001                             
02            002760FLASHDL51850346370   1850346370                000000000070000007820000000207 0000000193121714121814          EDERZ121714084550E           A 10000000007      406 LINCOLN             GRANADOS, DELFINO & MARI02-0960-00    01001     LOC:                    MTR:80112664                                                                                                                                                                                     02-0960-0001001                         6000
02            002790FLASHDL51850711895   1850711895                000000008290000829550000001033 0000000759121714121814          EDERZ121714084601E           A 00000000759      405 TEGNER              ROCHA, BEATRICE C       02-0970-01    01001     LOC:                    MTR:80112663                                                                                                                                                                                     02-0970-0101001                         0010
02            002820FLASHDL51834129298   1834129298                000000013580001358319000001584 0000001302121714121814          EDERZ121714083716E           A 00000001302      403 TEGNER              MANRIQUEZ, MARIANA      02-0980-08    01001     LOC:                    MTR:80112676                                                                                                                                                                                     02-0980-0801001                         0062
02            002880FLASHDL51470055924   1470055924                000000045610000045610000004777 0000004513121714121814          EDERZ121714084636R           A 00000004513      402 LINCOLN             LIMONES, JUAN           02-1000-00    01001     LOC:                    MTR:80165343                                                                                                                                                                                     02-1000-0001001                             
02            002910FLASHDL51470044542   1470044542                000000056570000056575000005853 0000005584121714121814          EDERZ121714083704R           A 00000005584      401 TEGNER              ALDAVERA, JOSE R        02-1010-07    01001     LOC:                    MTR:80112666                                                                                                                                                                                     02-1010-0701001                             
02            002940FLASHDL51834120218   1834120218                000000046520004652644000005113 0000004713121714121814          EDERZ121714083700E           A 10000004636      311 TEGNER              ALLEN, DOROTHY F        02-1020-02    01001     LOC:                    MTR:80165345                                                                                                                                                                                     02-1020-0201001                         0000
02            003000FLASHDL51852318064   1852318064                000000000000000000001000000255 0000000145121714121814          EDERZ121714084624E           D 00000000000      310 LINCOLN             MANZANO, PATRICIA A     02-1040-03    01001     LOC:                    MTR:80165340                                                                                                                                                                                     02-1040-0301001                         6000
02            003060FLASHDL51852320128   1852320128                000000004020000402876000000569 0000000250121714121814          EDERZ121714084612E           A 00000000250      306 LINCOLN             GONZALEZ, RITA V.       02-1060-00    01001     LOC:                    MTR:80165341                                                                                                                                                                                     02-1060-0001001                         0040
